{
  "_format": "hh-sol-artifact-1",
  "contractName": "HealthRecordManagement",
  "sourceName": "contracts/HealthRecordManagement.sol",
  "abi": [
    {
      "inputs": [],
      "stateMutability": "nonpayable",
      "type": "constructor"
    },
    {
      "anonymous": false,
      "inputs": [
        {
          "indexed": false,
          "internalType": "uint256",
          "name": "recordId",
          "type": "uint256"
        },
        {
          "indexed": true,
          "internalType": "address",
          "name": "patientAddress",
          "type": "address"
        },
        {
          "indexed": true,
          "internalType": "address",
          "name": "addedBy",
          "type": "address"
        },
        {
          "indexed": false,
          "internalType": "uint256",
          "name": "timeStamp",
          "type": "uint256"
        }
      ],
      "name": "AddHealthRecord",
      "type": "event"
    },
    {
      "anonymous": false,
      "inputs": [
        {
          "indexed": true,
          "internalType": "address",
          "name": "healthServiceProviderAddress",
          "type": "address"
        },
        {
          "indexed": false,
          "internalType": "bool",
          "name": "deRegisterStatus",
          "type": "bool"
        },
        {
          "indexed": true,
          "internalType": "address",
          "name": "updateBy",
          "type": "address"
        },
        {
          "indexed": false,
          "internalType": "uint256",
          "name": "timeStamp",
          "type": "uint256"
        }
      ],
      "name": "DeRegisterAuthorizedHealthServiceProvider",
      "type": "event"
    },
    {
      "anonymous": false,
      "inputs": [
        {
          "indexed": true,
          "internalType": "address",
          "name": "healthServiceProviderAddress",
          "type": "address"
        },
        {
          "indexed": false,
          "internalType": "bool",
          "name": "registerStatus",
          "type": "bool"
        },
        {
          "indexed": true,
          "internalType": "address",
          "name": "updateBy",
          "type": "address"
        },
        {
          "indexed": false,
          "internalType": "uint256",
          "name": "timeStamp",
          "type": "uint256"
        }
      ],
      "name": "RegisterAuthorizedHealthServiceProvider",
      "type": "event"
    },
    {
      "anonymous": false,
      "inputs": [
        {
          "indexed": true,
          "internalType": "address",
          "name": "fromPatientAddress",
          "type": "address"
        },
        {
          "indexed": true,
          "internalType": "address",
          "name": "toHealthServiceProviderAddress",
          "type": "address"
        },
        {
          "indexed": false,
          "internalType": "uint256",
          "name": "fees",
          "type": "uint256"
        },
        {
          "indexed": false,
          "internalType": "uint256",
          "name": "timeStamp",
          "type": "uint256"
        }
      ],
      "name": "TransferFeesAndBookAppointment",
      "type": "event"
    },
    {
      "inputs": [
        {
          "internalType": "address",
          "name": "patientAddress",
          "type": "address"
        },
        {
          "internalType": "string",
          "name": "diagonosis",
          "type": "string"
        },
        {
          "internalType": "string",
          "name": "treatment",
          "type": "string"
        }
      ],
      "name": "addHealthRecord",
      "outputs": [],
      "stateMutability": "nonpayable",
      "type": "function"
    },
    {
      "inputs": [
        {
          "internalType": "address",
          "name": "_healthServiceProvider",
          "type": "address"
        }
      ],
      "name": "deregisterHealthCareServiceProvider",
      "outputs": [],
      "stateMutability": "nonpayable",
      "type": "function"
    },
    {
      "inputs": [
        {
          "internalType": "address",
          "name": "patientAddress",
          "type": "address"
        }
      ],
      "name": "getDoctorListByPatientAddress",
      "outputs": [
        {
          "internalType": "address[]",
          "name": "",
          "type": "address[]"
        }
      ],
      "stateMutability": "view",
      "type": "function"
    },
    {
      "inputs": [
        {
          "internalType": "address",
          "name": "doctorAddress",
          "type": "address"
        }
      ],
      "name": "getPatientListByDoctorAddress",
      "outputs": [
        {
          "internalType": "address[]",
          "name": "",
          "type": "address[]"
        }
      ],
      "stateMutability": "view",
      "type": "function"
    },
    {
      "inputs": [
        {
          "internalType": "address",
          "name": "user",
          "type": "address"
        }
      ],
      "name": "isHealthServiceProvider",
      "outputs": [
        {
          "internalType": "bool",
          "name": "",
          "type": "bool"
        }
      ],
      "stateMutability": "view",
      "type": "function"
    },
    {
      "inputs": [
        {
          "internalType": "address",
          "name": "user",
          "type": "address"
        }
      ],
      "name": "isNormalUser",
      "outputs": [
        {
          "internalType": "bool",
          "name": "",
          "type": "bool"
        }
      ],
      "stateMutability": "view",
      "type": "function"
    },
    {
      "inputs": [
        {
          "internalType": "address",
          "name": "user",
          "type": "address"
        }
      ],
      "name": "isOwner",
      "outputs": [
        {
          "internalType": "bool",
          "name": "",
          "type": "bool"
        }
      ],
      "stateMutability": "view",
      "type": "function"
    },
    {
      "inputs": [
        {
          "internalType": "address",
          "name": "_healthServiceProvider",
          "type": "address"
        }
      ],
      "name": "registerHealthCareServiceProvider",
      "outputs": [],
      "stateMutability": "nonpayable",
      "type": "function"
    },
    {
      "inputs": [
        {
          "internalType": "address",
          "name": "doctorAddress",
          "type": "address"
        }
      ],
      "name": "setAppointment",
      "outputs": [],
      "stateMutability": "payable",
      "type": "function"
    },
    {
      "inputs": [
        {
          "internalType": "address",
          "name": "patientAddress",
          "type": "address"
        }
      ],
      "name": "viewHealthRecords",
      "outputs": [
        {
          "components": [
            {
              "internalType": "uint256",
              "name": "recordId",
              "type": "uint256"
            },
            {
              "internalType": "address",
              "name": "patientAddress",
              "type": "address"
            },
            {
              "internalType": "string",
              "name": "diagonosis",
              "type": "string"
            },
            {
              "internalType": "string",
              "name": "treatment",
              "type": "string"
            },
            {
              "internalType": "uint256",
              "name": "timeStamp",
              "type": "uint256"
            },
            {
              "internalType": "address",
              "name": "addedBy",
              "type": "address"
            }
          ],
          "internalType": "struct HealthRecordManagement.HealthRecord[]",
          "name": "",
          "type": "tuple[]"
        }
      ],
      "stateMutability": "view",
      "type": "function"
    }
  ],
  "bytecode": "0x608060405234801561001057600080fd5b50600080546001600160a01b031916331790556040805160608101909152603c808252610046919061176360208301393361004b565b61012f565b61009482826040516024016100619291906100cf565b60408051601f198184030181529190526020810180516001600160e01b0390811663319af33360e01b1790915261009816565b5050565b6100ab816100ae60201b610f0f1760201c565b50565b60006a636f6e736f6c652e6c6f679050600080835160208501845afa505050565b604081526000835180604084015260005b818110156100fd57602081870181015160608684010152016100e0565b50600060608285018101919091526001600160a01b03949094166020840152601f01601f191690910190910192915050565b6116258061013e6000396000f3fe6080604052600436106100915760003560e01c80637b3cb0fb116100595780637b3cb0fb1461016d57806385e652df1461018d57806386dd0f93146101c6578063eaa4739a146101e6578063eac1c9071461020657600080fd5b80631377b8c2146100965780631397639c146100ab578063147cf18a146100e15780632a21a3af1461010e5780632f54bf6e1461013e575b600080fd5b6100a96100a43660046110c1565b610226565b005b3480156100b757600080fd5b506100cb6100c63660046110c1565b61045c565b6040516100d891906110e3565b60405180910390f35b3480156100ed57600080fd5b506101016100fc3660046110c1565b610561565b6040516100d89190611175565b34801561011a57600080fd5b5061012e6101293660046110c1565b6107cb565b60405190151581526020016100d8565b34801561014a57600080fd5b5061012e6101593660046110c1565b6000546001600160a01b0391821691161490565b34801561017957600080fd5b506100a96101883660046112e0565b610809565b34801561019957600080fd5b5061012e6101a83660046110c1565b6001600160a01b031660009081526001602052604090205460ff1690565b3480156101d257600080fd5b506100a96101e13660046110c1565b610a46565b3480156101f257600080fd5b506100a96102013660046110c1565b610c29565b34801561021257600080fd5b506100cb6102213660046110c1565b610e33565b6001600160a01b0381166102815760405162461bcd60e51b815260206004820152601660248201527f496e76616c696420646f63746f7220616464726573730000000000000000000060448201526064015b60405180910390fd5b6001600160a01b03811660009081526001602052604090205460ff1661030f5760405162461bcd60e51b815260206004820152602f60248201527f446f63746f72206973206e6f7420616e20617574686f72697a6564206865616c60448201527f7468636172652070726f766964657200000000000000000000000000000000006064820152608401610278565b600034116103715760405162461bcd60e51b815260206004820152602960248201527f4170706f696e746d656e7420666565206d7573742062652067726561746572206044820152687468616e207a65726f60b81b6064820152608401610278565b6040516001600160a01b038216903480156108fc02916000818181858888f193505050501580156103a6573d6000803e3d6000fd5b503360008181526002602090815260408083208054600181810183559185528385200180546001600160a01b03881673ffffffffffffffffffffffffffffffffffffffff19918216811790925581865260038552838620805493840181558652939094200180549092168417909155519091907fb8fb695c5556a967cd515be8977f1a9dea08fa7c85188d88861d084bcb0bde69906104519034904290918252602082015260400190565b60405180910390a350565b6001600160a01b03811660009081526001602052604090205460609060ff166104ed5760405162461bcd60e51b815260206004820152603e60248201527f4f6e6c7920617574686f72697a6564206865616c74686361726520736572766960448201527f63652070726f7669646572732063616e20686176652070617469656e747300006064820152608401610278565b6001600160a01b0382166000908152600360209081526040918290208054835181840281018401909452808452909183018282801561055557602002820191906000526020600020905b81546001600160a01b03168152600190910190602001808311610537575b50505050509050919050565b606081336001600160a01b038216148061058057506105803382610f30565b6105f25760405162461bcd60e51b815260206004820152603f60248201527f416363657373207265737472696374656420746f207468652070617469656e7460448201527f206f72207468656972206170706f696e74656420646f63746f72204f6e6c79006064820152608401610278565b6001600160a01b038316600090815260046020908152604080832080548251818502810185019093528083529193909284015b828210156107be5760008481526020908190206040805160c081018252600686029092018054835260018101546001600160a01b0316938301939093526002830180549293929184019161067890611359565b80601f01602080910402602001604051908101604052809291908181526020018280546106a490611359565b80156106f15780601f106106c6576101008083540402835291602001916106f1565b820191906000526020600020905b8154815290600101906020018083116106d457829003601f168201915b5050505050815260200160038201805461070a90611359565b80601f016020809104026020016040519081016040528092919081815260200182805461073690611359565b80156107835780601f1061075857610100808354040283529160200191610783565b820191906000526020600020905b81548152906001019060200180831161076657829003601f168201915b505050918352505060048201546020808301919091526005909201546001600160a01b03166040909101529082526001929092019101610625565b5050505091505b50919050565b600080546001600160a01b0383811691161480159061080357506001600160a01b03821660009081526001602052604090205460ff16155b92915050565b82336001600160a01b038216148061082657506108263382610f30565b6108a45760405162461bcd60e51b815260206004820152604360248201527f4f6e6c79207468652070617469656e74206f72207468656972206170706f696e60448201527f74656420646f63746f722063616e206164642061206865616c7468207265636f60648201526239321760e91b608482015260a401610278565b6108c66040518060600160405280602c8152602001611546602c913985610ffa565b6001600160a01b0384166000908152600460205260408120546108ea90600161138d565b6001600160a01b038681166000818152600460209081526040808320815160c0810183528781528084019586529182018b8152606083018b90524260808401523360a08401528154600180820184559286529390942082516006909402019283559351938201805473ffffffffffffffffffffffffffffffffffffffff191694909516939093179093555192935091600282019061098890826113fc565b506060820151600382019061099d90826113fc565b506080820151816004015560a08201518160050160006101000a8154816001600160a01b0302191690836001600160a01b0316021790555050506109fa6040518060600160405280603781526020016115b9603791398633611043565b6040805182815242602082015233916001600160a01b038816917fbb040ed1d9fb19a39fb4d90ab548ecbab7d6e1c91e5c9c3535d899ba9902993d910160405180910390a35050505050565b6000546001600160a01b03163314610ab45760405162461bcd60e51b815260206004820152602b60248201527f4f6e6c7920636f6e7472616374206f776e65722063616e20706572666f726d2060448201526a3a3434b99030b1ba34b7b760a91b6064820152608401610278565b6001600160a01b038116610b1a5760405162461bcd60e51b815260206004820152602760248201527f496e76616c696420616464726573733a20616464726573732063616e6e6f74206044820152661899481b9d5b1b60ca1b6064820152608401610278565b6001600160a01b03811660009081526001602052604090205460ff1615610b995760405162461bcd60e51b815260206004820152602d60248201527f4865616c746820536572766963652050726f766964657220697320616c72656160448201526c191e481c9959da5cdd195c9959609a1b6064820152608401610278565b6001600160a01b038116600090815260016020818152604092839020805460ff19169092179091558151608081019092526047808352610be192916115729083013982610ffa565b60005460408051600181524260208201526001600160a01b03928316928416917ff24ab68ab3564db646589be924cb7b642d0025c030cb85172b06f474211a84b79101610451565b6000546001600160a01b03163314610c975760405162461bcd60e51b815260206004820152602b60248201527f4f6e6c7920636f6e7472616374206f776e65722063616e20706572666f726d2060448201526a3a3434b99030b1ba34b7b760a91b6064820152608401610278565b6001600160a01b038116610cfd5760405162461bcd60e51b815260206004820152602760248201527f496e76616c696420616464726573733a20616464726573732063616e6e6f74206044820152661899481b9d5b1b60ca1b6064820152608401610278565b6001600160a01b03811660009081526001602052604090205460ff16610d8b5760405162461bcd60e51b815260206004820152603360248201527f4865616c746820536572766963652050726f7669646572206973206e6f74206360448201527f757272656e746c792072656769737465726564000000000000000000000000006064820152608401610278565b6001600160a01b038116600090815260016020908152604091829020805460ff191690558151808301909252601c82527f257320646572656769737465726564207375636365737366756c6c790000000090820152610dea9082610ffa565b60008054604080519283524260208401526001600160a01b0391821692918416917fdf5f403771c0fe0252832533a8962a9b62b15f8013a8c2237f55c691174f879d9101610451565b6060336001600160a01b03831614610e9d5760405162461bcd60e51b815260206004820152602760248201527f4f6e6c79207468652070617469656e742063616e207669657720746865697220604482015266646f63746f727360c81b6064820152608401610278565b6001600160a01b03821660009081526002602090815260409182902080548351818402810184019094528084529091830182828015610555576020028201919060005260206000209081546001600160a01b031681526001909101906020018083116105375750505050509050919050565b60006a636f6e736f6c652e6c6f679050600080835160208501845afa505050565b6001600160a01b038116600090815260026020908152604080832080548251818502810185019093528083528493830182828015610f9757602002820191906000526020600020905b81546001600160a01b03168152600190910190602001808311610f79575b5050505050905060005b8151811015610fef57846001600160a01b0316828281518110610fc657610fc66114bb565b60200260200101516001600160a01b031603610fe757600192505050610803565b600101610fa1565b506000949350505050565b61103f82826040516024016110109291906114d1565b60408051601f198184030181529190526020810180516001600160e01b031663319af33360e01b17905261108f565b5050565b61108a83838360405160240161105b939291906114fc565b60408051601f198184030181529190526020810180516001600160e01b03166307e763af60e51b17905261108f565b505050565b61109881610f0f565b50565b6110a361152f565b565b80356001600160a01b03811681146110bc57600080fd5b919050565b6000602082840312156110d357600080fd5b6110dc826110a5565b9392505050565b602080825282518282018190526000918401906040840190835b818110156111245783516001600160a01b03168352602093840193909201916001016110fd565b509095945050505050565b6000815180845260005b8181101561115557602081850181015186830182015201611139565b506000602082860101526020601f19601f83011685010191505092915050565b6000602082016020835280845180835260408501915060408160051b86010192506020860160005b8281101561122f57603f198786030184528151805186526001600160a01b036020820151166020870152604081015160c060408801526111e060c088018261112f565b9050606082015187820360608901526111f9828261112f565b608084810151908a015260a0938401516001600160a01b031693909801929092525050602093840193919091019060010161119d565b50929695505050505050565b634e487b7160e01b600052604160045260246000fd5b600082601f83011261126257600080fd5b813567ffffffffffffffff81111561127c5761127c61123b565b604051601f8201601f19908116603f0116810167ffffffffffffffff811182821017156112ab576112ab61123b565b6040528181528382016020018510156112c357600080fd5b816020850160208301376000918101602001919091529392505050565b6000806000606084860312156112f557600080fd5b6112fe846110a5565b9250602084013567ffffffffffffffff81111561131a57600080fd5b61132686828701611251565b925050604084013567ffffffffffffffff81111561134357600080fd5b61134f86828701611251565b9150509250925092565b600181811c9082168061136d57607f821691505b6020821081036107c557634e487b7160e01b600052602260045260246000fd5b8082018082111561080357634e487b7160e01b600052601160045260246000fd5b601f82111561108a57806000526020600020601f840160051c810160208510156113d55750805b601f840160051c820191505b818110156113f557600081556001016113e1565b5050505050565b815167ffffffffffffffff8111156114165761141661123b565b61142a816114248454611359565b846113ae565b6020601f82116001811461145e57600083156114465750848201515b600019600385901b1c1916600184901b1784556113f5565b600084815260208120601f198516915b8281101561148e578785015182556020948501946001909201910161146e565b50848210156114ac5786840151600019600387901b60f8161c191681555b50505050600190811b01905550565b634e487b7160e01b600052603260045260246000fd5b6040815260006114e4604083018561112f565b90506001600160a01b03831660208301529392505050565b60608152600061150f606083018661112f565b6001600160a01b0394851660208401529290931660409091015292915050565b634e487b7160e01b600052605160045260246000fdfe416464696e67204865616c7468205265636f726420666f722050617469656e7420416464726573733a20257325732072656769737465726564207375636365737366756c6c7920617320616e20617574686f72697a6564204865616c74684361726520536572766963652050726f76696465724865616c7468205265636f7264206164646564207375636365737366756c6c7920666f722050617469656e743a2025732062793a202573a2646970667358221220c4e7110245a8dc3c2a06c78d0e78e676c420d9964450fc2a72a68e102f1ac85d64736f6c634300081c0033446563656e7472616c697a6564204865616c7468205265636f7264204d616e6167656d656e7420636f6e7472616374206465706c6f7965642062793a",
  "linkReferences": {},
  "deployedLinkReferences": {}
}