{
  "_format": "hh-sol-artifact-1",
  "contractName": "HealthRecordManagement",
  "sourceName": "contracts/HealthRecordManagement.sol",
  "abi": [
    {
      "inputs": [],
      "stateMutability": "nonpayable",
      "type": "constructor"
    },
    {
      "anonymous": false,
      "inputs": [
        {
          "indexed": false,
          "internalType": "uint256",
          "name": "recordId",
          "type": "uint256"
        },
        {
          "indexed": true,
          "internalType": "address",
          "name": "patientAddress",
          "type": "address"
        },
        {
          "indexed": false,
          "internalType": "int16",
          "name": "height",
          "type": "int16"
        },
        {
          "indexed": false,
          "internalType": "int16",
          "name": "weight",
          "type": "int16"
        },
        {
          "indexed": false,
          "internalType": "string",
          "name": "bloodPressure",
          "type": "string"
        },
        {
          "indexed": false,
          "internalType": "string",
          "name": "cholesterol",
          "type": "string"
        },
        {
          "indexed": false,
          "internalType": "string",
          "name": "diagnosis",
          "type": "string"
        },
        {
          "indexed": false,
          "internalType": "string",
          "name": "treatment",
          "type": "string"
        },
        {
          "indexed": false,
          "internalType": "uint256",
          "name": "timeStamp",
          "type": "uint256"
        },
        {
          "indexed": true,
          "internalType": "address",
          "name": "addedBy",
          "type": "address"
        }
      ],
      "name": "AddHealthRecord",
      "type": "event"
    },
    {
      "anonymous": false,
      "inputs": [
        {
          "indexed": true,
          "internalType": "address",
          "name": "doctorAddress",
          "type": "address"
        },
        {
          "indexed": false,
          "internalType": "bool",
          "name": "deregisterStatus",
          "type": "bool"
        },
        {
          "indexed": false,
          "internalType": "string",
          "name": "reason",
          "type": "string"
        },
        {
          "indexed": false,
          "internalType": "uint256",
          "name": "timeStamp",
          "type": "uint256"
        },
        {
          "indexed": true,
          "internalType": "address",
          "name": "deRegisteredBy",
          "type": "address"
        }
      ],
      "name": "DeRegisterAuthorizedDoctor",
      "type": "event"
    },
    {
      "anonymous": false,
      "inputs": [
        {
          "indexed": true,
          "internalType": "address",
          "name": "doctorAddress",
          "type": "address"
        },
        {
          "indexed": false,
          "internalType": "string",
          "name": "qualification",
          "type": "string"
        },
        {
          "indexed": false,
          "internalType": "string",
          "name": "specialization",
          "type": "string"
        },
        {
          "indexed": false,
          "internalType": "int256",
          "name": "fees",
          "type": "int256"
        },
        {
          "indexed": false,
          "internalType": "bool",
          "name": "status",
          "type": "bool"
        },
        {
          "indexed": false,
          "internalType": "uint256",
          "name": "timeStamp",
          "type": "uint256"
        },
        {
          "indexed": true,
          "internalType": "address",
          "name": "registeredBy",
          "type": "address"
        }
      ],
      "name": "RegisterAuthorizedDoctor",
      "type": "event"
    },
    {
      "anonymous": false,
      "inputs": [
        {
          "indexed": true,
          "internalType": "address",
          "name": "fromPatientAddress",
          "type": "address"
        },
        {
          "indexed": true,
          "internalType": "address",
          "name": "toHealthServiceProviderAddress",
          "type": "address"
        },
        {
          "indexed": false,
          "internalType": "uint256",
          "name": "fees",
          "type": "uint256"
        },
        {
          "indexed": false,
          "internalType": "string",
          "name": "reason",
          "type": "string"
        },
        {
          "indexed": false,
          "internalType": "uint256",
          "name": "timeStamp",
          "type": "uint256"
        }
      ],
      "name": "TransferFeesAndBookAppointment",
      "type": "event"
    },
    {
      "inputs": [
        {
          "internalType": "address",
          "name": "_patientAddress",
          "type": "address"
        },
        {
          "internalType": "int16",
          "name": "_height",
          "type": "int16"
        },
        {
          "internalType": "int16",
          "name": "_weight",
          "type": "int16"
        },
        {
          "internalType": "string",
          "name": "_bloodPressure",
          "type": "string"
        },
        {
          "internalType": "string",
          "name": "_cholesterol",
          "type": "string"
        },
        {
          "internalType": "string",
          "name": "_diagnosis",
          "type": "string"
        },
        {
          "internalType": "string",
          "name": "_treatment",
          "type": "string"
        }
      ],
      "name": "addHealthRecord",
      "outputs": [],
      "stateMutability": "nonpayable",
      "type": "function"
    },
    {
      "inputs": [
        {
          "internalType": "address",
          "name": "_doctorAddress",
          "type": "address"
        }
      ],
      "name": "assignDoctorToPatient",
      "outputs": [],
      "stateMutability": "nonpayable",
      "type": "function"
    },
    {
      "inputs": [
        {
          "internalType": "address payable",
          "name": "_doctorAddress",
          "type": "address"
        },
        {
          "internalType": "string",
          "name": "_reason",
          "type": "string"
        }
      ],
      "name": "bookAppointment",
      "outputs": [],
      "stateMutability": "payable",
      "type": "function"
    },
    {
      "inputs": [
        {
          "internalType": "address",
          "name": "_doctorAddress",
          "type": "address"
        },
        {
          "internalType": "string",
          "name": "_reason",
          "type": "string"
        }
      ],
      "name": "deregisterDoctor",
      "outputs": [],
      "stateMutability": "nonpayable",
      "type": "function"
    },
    {
      "inputs": [],
      "name": "getAllDoctors",
      "outputs": [
        {
          "components": [
            {
              "internalType": "address",
              "name": "doctorAddress",
              "type": "address"
            },
            {
              "internalType": "string",
              "name": "qualification",
              "type": "string"
            },
            {
              "internalType": "string",
              "name": "specialization",
              "type": "string"
            },
            {
              "internalType": "int256",
              "name": "fees",
              "type": "int256"
            },
            {
              "internalType": "bool",
              "name": "status",
              "type": "bool"
            },
            {
              "internalType": "uint256",
              "name": "timeStamp",
              "type": "uint256"
            },
            {
              "internalType": "address",
              "name": "addedBy",
              "type": "address"
            }
          ],
          "internalType": "struct HealthRecordManagement.Doctor[]",
          "name": "",
          "type": "tuple[]"
        }
      ],
      "stateMutability": "view",
      "type": "function"
    },
    {
      "inputs": [
        {
          "internalType": "address",
          "name": "_patientAddress",
          "type": "address"
        }
      ],
      "name": "getAssignedDoctors",
      "outputs": [
        {
          "internalType": "address[]",
          "name": "",
          "type": "address[]"
        }
      ],
      "stateMutability": "view",
      "type": "function"
    },
    {
      "inputs": [
        {
          "internalType": "address",
          "name": "_doctorAddress",
          "type": "address"
        }
      ],
      "name": "getPatientsOfDoctor",
      "outputs": [
        {
          "internalType": "address[]",
          "name": "",
          "type": "address[]"
        }
      ],
      "stateMutability": "view",
      "type": "function"
    },
    {
      "inputs": [
        {
          "internalType": "address",
          "name": "user",
          "type": "address"
        }
      ],
      "name": "isAuthorizedDoctor",
      "outputs": [
        {
          "internalType": "bool",
          "name": "",
          "type": "bool"
        }
      ],
      "stateMutability": "view",
      "type": "function"
    },
    {
      "inputs": [
        {
          "internalType": "address",
          "name": "user",
          "type": "address"
        }
      ],
      "name": "isNormalUser",
      "outputs": [
        {
          "internalType": "bool",
          "name": "",
          "type": "bool"
        }
      ],
      "stateMutability": "view",
      "type": "function"
    },
    {
      "inputs": [
        {
          "internalType": "address",
          "name": "user",
          "type": "address"
        }
      ],
      "name": "isOwner",
      "outputs": [
        {
          "internalType": "bool",
          "name": "",
          "type": "bool"
        }
      ],
      "stateMutability": "view",
      "type": "function"
    },
    {
      "inputs": [
        {
          "internalType": "address",
          "name": "_doctorAddress",
          "type": "address"
        },
        {
          "internalType": "string",
          "name": "_qualification",
          "type": "string"
        },
        {
          "internalType": "string",
          "name": "_specialization",
          "type": "string"
        },
        {
          "internalType": "int256",
          "name": "_fees",
          "type": "int256"
        }
      ],
      "name": "registerDoctor",
      "outputs": [],
      "stateMutability": "nonpayable",
      "type": "function"
    },
    {
      "inputs": [
        {
          "internalType": "address",
          "name": "_patientAddress",
          "type": "address"
        }
      ],
      "name": "viewHealthRecords",
      "outputs": [
        {
          "components": [
            {
              "internalType": "uint256",
              "name": "recordId",
              "type": "uint256"
            },
            {
              "internalType": "address",
              "name": "patientAddress",
              "type": "address"
            },
            {
              "internalType": "int16",
              "name": "height",
              "type": "int16"
            },
            {
              "internalType": "int16",
              "name": "weight",
              "type": "int16"
            },
            {
              "internalType": "string",
              "name": "bloodPressure",
              "type": "string"
            },
            {
              "internalType": "string",
              "name": "cholesterol",
              "type": "string"
            },
            {
              "internalType": "string",
              "name": "diagnosis",
              "type": "string"
            },
            {
              "internalType": "string",
              "name": "treatment",
              "type": "string"
            },
            {
              "internalType": "uint256",
              "name": "timeStamp",
              "type": "uint256"
            },
            {
              "internalType": "address",
              "name": "addedBy",
              "type": "address"
            }
          ],
          "internalType": "struct HealthRecordManagement.HealthRecord[]",
          "name": "",
          "type": "tuple[]"
        }
      ],
      "stateMutability": "view",
      "type": "function"
    }
  ],
  "bytecode": "0x608060405234801561001057600080fd5b50600080546001600160a01b031916331790556040805160608101909152603c808252610046919061206f60208301393361004b565b61012f565b61009482826040516024016100619291906100cf565b60408051601f198184030181529190526020810180516001600160e01b0390811663319af33360e01b1790915261009816565b5050565b6100ab816100ae60201b6116181760201c565b50565b60006a636f6e736f6c652e6c6f679050600080835160208501845afa505050565b604081526000835180604084015260005b818110156100fd57602081870181015160608684010152016100e0565b50600060608285018101919091526001600160a01b03949094166020840152601f01601f191690910190910192915050565b611f318061013e6000396000f3fe6080604052600436106100c75760003560e01c8063686fc54e11610074578063ca7c36901161004e578063ca7c369014610223578063dcf6a38214610243578063f0d950901461027c57600080fd5b8063686fc54e146101d05780636eb0ae20146101e3578063c2c958051461020357600080fd5b80632f54bf6e116100a55780632f54bf6e146101545780634bf90839146101835780634c041c72146101a357600080fd5b8063147cf18a146100cc57806315f6f13f146101025780632a21a3af14610124575b600080fd5b3480156100d857600080fd5b506100ec6100e7366004611735565b61029e565b6040516100f9919061179f565b60405180910390f35b34801561010e57600080fd5b5061012261011d366004611735565b610655565b005b34801561013057600080fd5b5061014461013f366004611735565b61071d565b60405190151581526020016100f9565b34801561016057600080fd5b5061014461016f366004611735565b6000546001600160a01b0391821691161490565b34801561018f57600080fd5b5061012261019e366004611991565b61075b565b3480156101af57600080fd5b506101c36101be366004611735565b610a2d565b6040516100f99190611a83565b6101226101de366004611acf565b610aa3565b3480156101ef57600080fd5b506101226101fe366004611acf565b611044565b34801561020f57600080fd5b5061012261021e366004611b1f565b61117b565b34801561022f57600080fd5b506101c361023e366004611735565b6113cf565b34801561024f57600080fd5b5061014461025e366004611735565b6001600160a01b031660009081526002602052604090205460ff1690565b34801561028857600080fd5b50610291611443565b6040516100f99190611ba2565b606081336001600160a01b03821614806102bd57506102bd3382611639565b6103345760405162461bcd60e51b815260206004820152603f60248201527f416363657373207265737472696374656420746f207468652070617469656e7460448201527f206f72207468656972206170706f696e74656420646f63746f72206f6e6c790060648201526084015b60405180910390fd5b6001600160a01b038316600090815260056020908152604080832080548251818502810185019093528083529193909284015b82821015610648576000848152602090819020604080516101408101825260088602909201805483526001808201546001600160a01b03811695850195909552600160a01b8504810b92840192909252600160b01b909304900b60608201526002820180549192916080840191906103de90611c68565b80601f016020809104026020016040519081016040528092919081815260200182805461040a90611c68565b80156104575780601f1061042c57610100808354040283529160200191610457565b820191906000526020600020905b81548152906001019060200180831161043a57829003601f168201915b5050505050815260200160038201805461047090611c68565b80601f016020809104026020016040519081016040528092919081815260200182805461049c90611c68565b80156104e95780601f106104be576101008083540402835291602001916104e9565b820191906000526020600020905b8154815290600101906020018083116104cc57829003601f168201915b5050505050815260200160048201805461050290611c68565b80601f016020809104026020016040519081016040528092919081815260200182805461052e90611c68565b801561057b5780601f106105505761010080835404028352916020019161057b565b820191906000526020600020905b81548152906001019060200180831161055e57829003601f168201915b5050505050815260200160058201805461059490611c68565b80601f01602080910402602001604051908101604052809291908181526020018280546105c090611c68565b801561060d5780601f106105e25761010080835404028352916020019161060d565b820191906000526020600020905b8154815290600101906020018083116105f057829003601f168201915b505050918352505060068201546020808301919091526007909201546001600160a01b03166040909101529082526001929092019101610367565b5050505091505b50919050565b6001600160a01b03811660009081526002602052604090205460ff166106bd5760405162461bcd60e51b815260206004820152601860248201527f446f63746f72206973206e6f7420617574686f72697a65640000000000000000604482015260640161032b565b3360008181526003602090815260408083208054600181810183559185528385200180546001600160a01b03979097166001600160a01b031997881681179091558452600483529083208054918201815583529120018054909216179055565b600080546001600160a01b0383811691161480159061075557506001600160a01b03821660009081526002602052604090205460ff16155b92915050565b86336001600160a01b038216148061077857506107783382611639565b6107f65760405162461bcd60e51b815260206004820152604360248201527f4f6e6c79207468652070617469656e74206f72207468656972206170706f696e60448201527f74656420646f63746f722063616e206164642061206865616c7468207265636f60648201526239321760e91b608482015260a40161032b565b6001600160a01b03881660009081526005602052604081205461081a906001611c9c565b905060006040518061014001604052808381526020018b6001600160a01b031681526020018a60010b81526020018960010b8152602001888152602001878152602001868152602001858152602001428152602001336001600160a01b03168152509050600560008b6001600160a01b03166001600160a01b031681526020019081526020016000208190806001815401808255809150506001900390600052602060002090600802016000909190919091506000820151816000015560208201518160010160006101000a8154816001600160a01b0302191690836001600160a01b0316021790555060408201518160010160146101000a81548161ffff021916908360010b61ffff16021790555060608201518160010160166101000a81548161ffff021916908360010b61ffff16021790555060808201518160020190816109659190611d0c565b5060a0820151600382019061097a9082611d0c565b5060c0820151600482019061098f9082611d0c565b5060e082015160058201906109a49082611d0c565b50610100820151600682015561012090910151600790910180546001600160a01b0319166001600160a01b0392831617905560405133918c16907f4d861259727afde033de42088d85930d8d899abbf2979cb30b4b71ef2034022090610a199086908e908e908e908e908e908e904290611dcb565b60405180910390a350505050505050505050565b6001600160a01b038116600090815260036020908152604091829020805483518184028101840190945280845260609392830182828015610a9757602002820191906000526020600020905b81546001600160a01b03168152600190910190602001808311610a79575b50505050509050919050565b6001600160a01b0382163303610afb5760405162461bcd60e51b815260206004820152601860248201527f53656c662d626f6f6b696e67206e6f7420616c6c6f7765640000000000000000604482015260640161032b565b610b4f6040518060e0016040528060006001600160a01b031681526020016060815260200160608152602001600081526020016000151581526020016000815260200160006001600160a01b031681525090565b6000805b600154811015610d4a57846001600160a01b031660018281548110610b7a57610b7a611e48565b60009182526020909120600790910201546001600160a01b031603610d425760018181548110610bac57610bac611e48565b60009182526020918290206040805160e0810190915260079092020180546001600160a01b031682526001810180549293919291840191610bec90611c68565b80601f0160208091040260200160405190810160405280929190818152602001828054610c1890611c68565b8015610c655780601f10610c3a57610100808354040283529160200191610c65565b820191906000526020600020905b815481529060010190602001808311610c4857829003601f168201915b50505050508152602001600282018054610c7e90611c68565b80601f0160208091040260200160405190810160405280929190818152602001828054610caa90611c68565b8015610cf75780601f10610ccc57610100808354040283529160200191610cf7565b820191906000526020600020905b815481529060010190602001808311610cda57829003601f168201915b505050918352505060038201546020820152600482015460ff1615156040820152600582015460608201526006909101546001600160a01b0316608090910152925060019150610d4a565b600101610b53565b5080610d985760405162461bcd60e51b815260206004820152601060248201527f446f63746f72206e6f7420666f756e6400000000000000000000000000000000604482015260640161032b565b6001600160a01b03841660009081526002602052604090205460ff16610e005760405162461bcd60e51b815260206004820152601860248201527f446f63746f72206973206e6f7420617574686f72697a65640000000000000000604482015260640161032b565b8160600151341015610e5e5760405162461bcd60e51b815260206004820152602160248201527f496e73756666696369656e74206665657320666f72206170706f696e746d656e6044820152601d60fa1b606482015260840161032b565b33600090815260036020908152604080832080548251818502810185019093528083529192909190830182828015610ebf57602002820191906000526020600020905b81546001600160a01b03168152600190910190602001808311610ea1575b5050505050905060005b8151811015610f6857856001600160a01b0316828281518110610eee57610eee611e48565b60200260200101516001600160a01b031603610f605760405162461bcd60e51b815260206004820152602b60248201527f4170706f696e746d656e742077697468207468697320646f63746f7220616c7260448201526a1958591e48189bdbdad95960aa1b606482015260840161032b565b600101610ec9565b506040516001600160a01b038616903480156108fc02916000818181858888f19350505050158015610f9e573d6000803e3d6000fd5b503360008181526003602090815260408083208054600181810183559185528385200180546001600160a01b038c166001600160a01b0319918216811790925581865260048552838620805493840181558652939094200180549092168417909155519091907f83b1b3dca6677b6b853556425fc3fe56069b946be503553bf786b0a2a730f59c9061103590349089904290611e5e565b60405180910390a35050505050565b6000546001600160a01b031633146110b25760405162461bcd60e51b815260206004820152602b60248201527f4f6e6c7920636f6e7472616374206f776e65722063616e20706572666f726d2060448201526a3a3434b99030b1ba34b7b760a91b606482015260840161032b565b6001600160a01b03821660009081526002602052604090205460ff1661111a5760405162461bcd60e51b815260206004820152601860248201527f446f63746f72206973206e6f7420617574686f72697a65640000000000000000604482015260640161032b565b6001600160a01b038216600081815260026020526040808220805460ff19169055513392917ff240531de2584ac3c0c582f5d4f3d4da137d1082a1f63ab5c8c97c8753d30b2e9161116f919086904290611e87565b60405180910390a35050565b6000546001600160a01b031633146111e95760405162461bcd60e51b815260206004820152602b60248201527f4f6e6c7920636f6e7472616374206f776e65722063616e20706572666f726d2060448201526a3a3434b99030b1ba34b7b760a91b606482015260840161032b565b6001600160a01b03841660009081526002602052604090205460ff16156112525760405162461bcd60e51b815260206004820152601960248201527f446f63746f7220616c726561647920617574686f72697a656400000000000000604482015260640161032b565b6040805160e0810182526001600160a01b03868116825260208201868152928201859052606082018490526001608083018190524260a08401523360c08401528054808201825560009190915282517fb10e2d527612073b26eecdfd717e6a320cf44b4afac2b0732d9fcbe2b7fa0cf6600790920291820180546001600160a01b031916919093161782559251919283927fb10e2d527612073b26eecdfd717e6a320cf44b4afac2b0732d9fcbe2b7fa0cf7909101906113129082611d0c565b50604082015160028201906113279082611d0c565b5060608201516003820155608082015160048201805491151560ff1992831617905560a0830151600583015560c090920151600690910180546001600160a01b039283166001600160a01b0319909116179055861660008181526002602052604090819020805490931660019081179093555133927f4af6b6e4f0f5b4102aae525d642a8aacc4a23fc5a1114f14e49c9e244b943e2391611035918991899189914290611ea2565b6001600160a01b038116600090815260046020908152604091829020805483518184028101840190945280845260609392830182828015610a97576020028201919060005260206000209081546001600160a01b03168152600190910190602001808311610a795750505050509050919050565b60606001805480602002602001604051908101604052809291908181526020016000905b8282101561160f5760008481526020908190206040805160e081019091526007850290910180546001600160a01b0316825260018101805492939192918401916114b090611c68565b80601f01602080910402602001604051908101604052809291908181526020018280546114dc90611c68565b80156115295780601f106114fe57610100808354040283529160200191611529565b820191906000526020600020905b81548152906001019060200180831161150c57829003601f168201915b5050505050815260200160028201805461154290611c68565b80601f016020809104026020016040519081016040528092919081815260200182805461156e90611c68565b80156115bb5780601f10611590576101008083540402835291602001916115bb565b820191906000526020600020905b81548152906001019060200180831161159e57829003601f168201915b50505091835250506003820154602080830191909152600483015460ff1615156040830152600583015460608301526006909201546001600160a01b03166080909101529082526001929092019101611467565b50505050905090565b60006a636f6e736f6c652e6c6f679050600080835160208501845afa505050565b6001600160a01b0381166000908152600360209081526040808320805482518185028101850190935280835284938301828280156116a057602002820191906000526020600020905b81546001600160a01b03168152600190910190602001808311611682575b5050505050905060005b81518110156116f857846001600160a01b03168282815181106116cf576116cf611e48565b60200260200101516001600160a01b0316036116f057600192505050610755565b6001016116aa565b506000949350505050565b61170b611ee5565b565b6001600160a01b038116811461172257600080fd5b50565b80356117308161170d565b919050565b60006020828403121561174757600080fd5b81356117528161170d565b9392505050565b6000815180845260005b8181101561177f57602081850181015186830182015201611763565b506000602082860101526020601f19601f83011685010191505092915050565b6000602082016020835280845180835260408501915060408160051b86010192506020860160005b828110156118ce57603f1987860301845281518051865260208101516117f860208801826001600160a01b03169052565b50604081015161180d604088018260010b9052565b506060810151611822606088018260010b9052565b506080810151610140608088015261183e610140880182611759565b905060a082015187820360a08901526118578282611759565b91505060c082015187820360c08901526118718282611759565b91505060e082015187820360e089015261188b8282611759565b91505061010082015161010088015261012082015191506118b86101208801836001600160a01b03169052565b95505060209384019391909101906001016117c7565b50929695505050505050565b8035600181900b811461173057600080fd5b634e487b7160e01b600052604160045260246000fd5b600082601f83011261191357600080fd5b813567ffffffffffffffff81111561192d5761192d6118ec565b604051601f8201601f19908116603f0116810167ffffffffffffffff8111828210171561195c5761195c6118ec565b60405281815283820160200185101561197457600080fd5b816020850160208301376000918101602001919091529392505050565b600080600080600080600060e0888a0312156119ac57600080fd5b6119b588611725565b96506119c3602089016118da565b95506119d1604089016118da565b9450606088013567ffffffffffffffff8111156119ed57600080fd5b6119f98a828b01611902565b945050608088013567ffffffffffffffff811115611a1657600080fd5b611a228a828b01611902565b93505060a088013567ffffffffffffffff811115611a3f57600080fd5b611a4b8a828b01611902565b92505060c088013567ffffffffffffffff811115611a6857600080fd5b611a748a828b01611902565b91505092959891949750929550565b602080825282518282018190526000918401906040840190835b81811015611ac45783516001600160a01b0316835260209384019390920191600101611a9d565b509095945050505050565b60008060408385031215611ae257600080fd5b8235611aed8161170d565b9150602083013567ffffffffffffffff811115611b0957600080fd5b611b1585828601611902565b9150509250929050565b60008060008060808587031215611b3557600080fd5b8435611b408161170d565b9350602085013567ffffffffffffffff811115611b5c57600080fd5b611b6887828801611902565b935050604085013567ffffffffffffffff811115611b8557600080fd5b611b9187828801611902565b949793965093946060013593505050565b6000602082016020835280845180835260408501915060408160051b86010192506020860160005b828110156118ce57603f1987860301845281516001600160a01b038151168652602081015160e06020880152611c0360e0880182611759565b905060408201518782036040890152611c1c8282611759565b606084810151908a01526080808501511515908a015260a080850151908a015260c0938401516001600160a01b0316939098019290925250506020938401939190910190600101611bca565b600181811c90821680611c7c57607f821691505b60208210810361064f57634e487b7160e01b600052602260045260246000fd5b8082018082111561075557634e487b7160e01b600052601160045260246000fd5b601f821115611d0757806000526020600020601f840160051c81016020851015611ce45750805b601f840160051c820191505b81811015611d045760008155600101611cf0565b50505b505050565b815167ffffffffffffffff811115611d2657611d266118ec565b611d3a81611d348454611c68565b84611cbd565b6020601f821160018114611d6e5760008315611d565750848201515b600019600385901b1c1916600184901b178455611d04565b600084815260208120601f198516915b82811015611d9e5787850151825560209485019460019092019101611d7e565b5084821015611dbc5786840151600019600387901b60f8161c191681555b50505050600190811b01905550565b8881528760010b60208201528660010b604082015261010060608201526000611df8610100830188611759565b8281036080840152611e0a8188611759565b905082810360a0840152611e1e8187611759565b905082810360c0840152611e328186611759565b9150508260e08301529998505050505050505050565b634e487b7160e01b600052603260045260246000fd5b838152606060208201526000611e776060830185611759565b9050826040830152949350505050565b8315158152606060208201526000611e776060830185611759565b60a081526000611eb560a0830188611759565b8281036020840152611ec78188611759565b60408401969096525050911515606083015260809091015292915050565b634e487b7160e01b600052605160045260246000fdfea26469706673582212201664db104ca9d8796a5cce1b04a65c2cac1f3c9604ee1423b705a89950aea99864736f6c634300081c0033446563656e7472616c697a6564204865616c7468205265636f7264204d616e6167656d656e7420636f6e7472616374206465706c6f7965642062793a",
  "linkReferences": {},
  "deployedLinkReferences": {}
}