{
  "_format": "hh-sol-artifact-1",
  "contractName": "HealthRecordManagement",
  "sourceName": "contracts/HealthRecordManagement.sol",
  "abi": [
    {
      "inputs": [],
      "stateMutability": "nonpayable",
      "type": "constructor"
    },
    {
      "anonymous": false,
      "inputs": [
        {
          "indexed": false,
          "internalType": "uint256",
          "name": "recordId",
          "type": "uint256"
        },
        {
          "indexed": true,
          "internalType": "address",
          "name": "patientAddress",
          "type": "address"
        },
        {
          "indexed": false,
          "internalType": "int16",
          "name": "height",
          "type": "int16"
        },
        {
          "indexed": false,
          "internalType": "int16",
          "name": "weight",
          "type": "int16"
        },
        {
          "indexed": false,
          "internalType": "string",
          "name": "bloodPressure",
          "type": "string"
        },
        {
          "indexed": false,
          "internalType": "string",
          "name": "cholesterol",
          "type": "string"
        },
        {
          "indexed": false,
          "internalType": "string",
          "name": "diagnosis",
          "type": "string"
        },
        {
          "indexed": false,
          "internalType": "string",
          "name": "treatment",
          "type": "string"
        },
        {
          "indexed": false,
          "internalType": "uint256",
          "name": "timeStamp",
          "type": "uint256"
        },
        {
          "indexed": true,
          "internalType": "address",
          "name": "addedBy",
          "type": "address"
        }
      ],
      "name": "AddHealthRecord",
      "type": "event"
    },
    {
      "anonymous": false,
      "inputs": [
        {
          "indexed": true,
          "internalType": "address",
          "name": "doctorAddress",
          "type": "address"
        },
        {
          "indexed": false,
          "internalType": "bool",
          "name": "deregisterStatus",
          "type": "bool"
        },
        {
          "indexed": false,
          "internalType": "string",
          "name": "reason",
          "type": "string"
        },
        {
          "indexed": false,
          "internalType": "uint256",
          "name": "timeStamp",
          "type": "uint256"
        },
        {
          "indexed": true,
          "internalType": "address",
          "name": "deRegisteredBy",
          "type": "address"
        }
      ],
      "name": "DeRegisterAuthorizedDoctor",
      "type": "event"
    },
    {
      "anonymous": false,
      "inputs": [
        {
          "indexed": true,
          "internalType": "address",
          "name": "doctorAddress",
          "type": "address"
        },
        {
          "indexed": false,
          "internalType": "string",
          "name": "qualification",
          "type": "string"
        },
        {
          "indexed": false,
          "internalType": "string",
          "name": "specialization",
          "type": "string"
        },
        {
          "indexed": false,
          "internalType": "int256",
          "name": "fees",
          "type": "int256"
        },
        {
          "indexed": false,
          "internalType": "bool",
          "name": "status",
          "type": "bool"
        },
        {
          "indexed": false,
          "internalType": "uint256",
          "name": "timeStamp",
          "type": "uint256"
        },
        {
          "indexed": true,
          "internalType": "address",
          "name": "registeredBy",
          "type": "address"
        }
      ],
      "name": "RegisterAuthorizedDoctor",
      "type": "event"
    },
    {
      "anonymous": false,
      "inputs": [
        {
          "indexed": true,
          "internalType": "address",
          "name": "fromPatientAddress",
          "type": "address"
        },
        {
          "indexed": true,
          "internalType": "address",
          "name": "toHealthServiceProviderAddress",
          "type": "address"
        },
        {
          "indexed": false,
          "internalType": "uint256",
          "name": "fees",
          "type": "uint256"
        },
        {
          "indexed": false,
          "internalType": "string",
          "name": "reason",
          "type": "string"
        },
        {
          "indexed": false,
          "internalType": "uint256",
          "name": "timeStamp",
          "type": "uint256"
        }
      ],
      "name": "TransferFeesAndBookAppointment",
      "type": "event"
    },
    {
      "inputs": [
        {
          "internalType": "address",
          "name": "_patientAddress",
          "type": "address"
        },
        {
          "internalType": "int16",
          "name": "_height",
          "type": "int16"
        },
        {
          "internalType": "int16",
          "name": "_weight",
          "type": "int16"
        },
        {
          "internalType": "string",
          "name": "_bloodPressure",
          "type": "string"
        },
        {
          "internalType": "string",
          "name": "_cholesterol",
          "type": "string"
        },
        {
          "internalType": "string",
          "name": "_diagnosis",
          "type": "string"
        },
        {
          "internalType": "string",
          "name": "_treatment",
          "type": "string"
        }
      ],
      "name": "addHealthRecord",
      "outputs": [],
      "stateMutability": "nonpayable",
      "type": "function"
    },
    {
      "inputs": [
        {
          "internalType": "address",
          "name": "_doctorAddress",
          "type": "address"
        }
      ],
      "name": "assignDoctorToPatient",
      "outputs": [],
      "stateMutability": "nonpayable",
      "type": "function"
    },
    {
      "inputs": [
        {
          "internalType": "address payable",
          "name": "_doctorAddress",
          "type": "address"
        },
        {
          "internalType": "string",
          "name": "_reason",
          "type": "string"
        }
      ],
      "name": "bookAppointment",
      "outputs": [],
      "stateMutability": "payable",
      "type": "function"
    },
    {
      "inputs": [
        {
          "internalType": "address",
          "name": "_doctorAddress",
          "type": "address"
        },
        {
          "internalType": "string",
          "name": "_reason",
          "type": "string"
        }
      ],
      "name": "deregisterDoctor",
      "outputs": [],
      "stateMutability": "nonpayable",
      "type": "function"
    },
    {
      "inputs": [],
      "name": "getAllDoctors",
      "outputs": [
        {
          "components": [
            {
              "internalType": "address",
              "name": "doctorAddress",
              "type": "address"
            },
            {
              "internalType": "string",
              "name": "qualification",
              "type": "string"
            },
            {
              "internalType": "string",
              "name": "specialization",
              "type": "string"
            },
            {
              "internalType": "int256",
              "name": "fees",
              "type": "int256"
            },
            {
              "internalType": "bool",
              "name": "status",
              "type": "bool"
            },
            {
              "internalType": "uint256",
              "name": "timeStamp",
              "type": "uint256"
            },
            {
              "internalType": "address",
              "name": "addedBy",
              "type": "address"
            }
          ],
          "internalType": "struct HealthRecordManagement.Doctor[]",
          "name": "",
          "type": "tuple[]"
        }
      ],
      "stateMutability": "view",
      "type": "function"
    },
    {
      "inputs": [
        {
          "internalType": "address",
          "name": "_patientAddress",
          "type": "address"
        }
      ],
      "name": "getAssignedDoctors",
      "outputs": [
        {
          "internalType": "address[]",
          "name": "",
          "type": "address[]"
        }
      ],
      "stateMutability": "view",
      "type": "function"
    },
    {
      "inputs": [
        {
          "internalType": "address",
          "name": "_doctorAddress",
          "type": "address"
        }
      ],
      "name": "getPatientsOfDoctor",
      "outputs": [
        {
          "internalType": "address[]",
          "name": "",
          "type": "address[]"
        }
      ],
      "stateMutability": "view",
      "type": "function"
    },
    {
      "inputs": [
        {
          "internalType": "address",
          "name": "user",
          "type": "address"
        }
      ],
      "name": "isAuthorizedDoctor",
      "outputs": [
        {
          "internalType": "bool",
          "name": "",
          "type": "bool"
        }
      ],
      "stateMutability": "view",
      "type": "function"
    },
    {
      "inputs": [
        {
          "internalType": "address",
          "name": "user",
          "type": "address"
        }
      ],
      "name": "isNormalUser",
      "outputs": [
        {
          "internalType": "bool",
          "name": "",
          "type": "bool"
        }
      ],
      "stateMutability": "view",
      "type": "function"
    },
    {
      "inputs": [
        {
          "internalType": "address",
          "name": "user",
          "type": "address"
        }
      ],
      "name": "isOwner",
      "outputs": [
        {
          "internalType": "bool",
          "name": "",
          "type": "bool"
        }
      ],
      "stateMutability": "view",
      "type": "function"
    },
    {
      "inputs": [
        {
          "internalType": "address",
          "name": "_patientAddress",
          "type": "address"
        }
      ],
      "name": "markAppointmentDoneByDoctor",
      "outputs": [],
      "stateMutability": "nonpayable",
      "type": "function"
    },
    {
      "inputs": [
        {
          "internalType": "address",
          "name": "_doctorAddress",
          "type": "address"
        }
      ],
      "name": "markAppointmentDoneByPatient",
      "outputs": [],
      "stateMutability": "nonpayable",
      "type": "function"
    },
    {
      "inputs": [
        {
          "internalType": "address",
          "name": "_doctorAddress",
          "type": "address"
        },
        {
          "internalType": "string",
          "name": "_qualification",
          "type": "string"
        },
        {
          "internalType": "string",
          "name": "_specialization",
          "type": "string"
        },
        {
          "internalType": "int256",
          "name": "_fees",
          "type": "int256"
        }
      ],
      "name": "registerDoctor",
      "outputs": [],
      "stateMutability": "nonpayable",
      "type": "function"
    },
    {
      "inputs": [
        {
          "internalType": "address",
          "name": "_patientAddress",
          "type": "address"
        }
      ],
      "name": "viewHealthRecords",
      "outputs": [
        {
          "components": [
            {
              "internalType": "uint256",
              "name": "recordId",
              "type": "uint256"
            },
            {
              "internalType": "address",
              "name": "patientAddress",
              "type": "address"
            },
            {
              "internalType": "int16",
              "name": "height",
              "type": "int16"
            },
            {
              "internalType": "int16",
              "name": "weight",
              "type": "int16"
            },
            {
              "internalType": "string",
              "name": "bloodPressure",
              "type": "string"
            },
            {
              "internalType": "string",
              "name": "cholesterol",
              "type": "string"
            },
            {
              "internalType": "string",
              "name": "diagnosis",
              "type": "string"
            },
            {
              "internalType": "string",
              "name": "treatment",
              "type": "string"
            },
            {
              "internalType": "uint256",
              "name": "timeStamp",
              "type": "uint256"
            },
            {
              "internalType": "address",
              "name": "addedBy",
              "type": "address"
            }
          ],
          "internalType": "struct HealthRecordManagement.HealthRecord[]",
          "name": "",
          "type": "tuple[]"
        }
      ],
      "stateMutability": "view",
      "type": "function"
    }
  ],
  "bytecode": "0x608060405234801561001057600080fd5b50600080546001600160a01b031916331790556040805160608101909152603c80825261004691906126f360208301393361004b565b61012f565b61009482826040516024016100619291906100cf565b60408051601f198184030181529190526020810180516001600160e01b0390811663319af33360e01b1790915261009816565b5050565b6100ab816100ae60201b611c6b1760201c565b50565b60006a636f6e736f6c652e6c6f679050600080835160208501845afa505050565b604081526000835180604084015260005b818110156100fd57602081870181015160608684010152016100e0565b50600060608285018101919091526001600160a01b03949094166020840152601f01601f191690910190910192915050565b6125b58061013e6000396000f3fe6080604052600436106100dd5760003560e01c8063686fc54e1161007f578063c2c9580511610059578063c2c9580514610259578063ca7c369014610279578063dcf6a38214610299578063f0d95090146102d257600080fd5b8063686fc54e146102065780636eb0ae20146102195780638553c64a1461023957600080fd5b80632f54bf6e116100bb5780632f54bf6e1461016a5780633c0ed60c146101995780634bf90839146101b95780634c041c72146101d957600080fd5b8063147cf18a146100e257806315f6f13f146101185780632a21a3af1461013a575b600080fd5b3480156100ee57600080fd5b506101026100fd366004611d88565b6102f4565b60405161010f9190611df2565b60405180910390f35b34801561012457600080fd5b50610138610133366004611d88565b6106ab565b005b34801561014657600080fd5b5061015a610155366004611d88565b610773565b604051901515815260200161010f565b34801561017657600080fd5b5061015a610185366004611d88565b6000546001600160a01b0391821691161490565b3480156101a557600080fd5b506101386101b4366004611d88565b6107b1565b3480156101c557600080fd5b506101386101d4366004611fe4565b610a41565b3480156101e557600080fd5b506101f96101f4366004611d88565b610d13565b60405161010f91906120d6565b610138610214366004612122565b610d89565b34801561022557600080fd5b50610138610234366004612122565b61131d565b34801561024557600080fd5b50610138610254366004611d88565b611560565b34801561026557600080fd5b50610138610274366004612172565b6117ce565b34801561028557600080fd5b506101f9610294366004611d88565b611a22565b3480156102a557600080fd5b5061015a6102b4366004611d88565b6001600160a01b031660009081526002602052604090205460ff1690565b3480156102de57600080fd5b506102e7611a96565b60405161010f91906121f5565b606081336001600160a01b038216148061031357506103133382611c8c565b61038a5760405162461bcd60e51b815260206004820152603f60248201527f416363657373207265737472696374656420746f207468652070617469656e7460448201527f206f72207468656972206170706f696e74656420646f63746f72206f6e6c790060648201526084015b60405180910390fd5b6001600160a01b038316600090815260056020908152604080832080548251818502810185019093528083529193909284015b8282101561069e576000848152602090819020604080516101408101825260088602909201805483526001808201546001600160a01b03811695850195909552600160a01b8504810b92840192909252600160b01b909304900b6060820152600282018054919291608084019190610434906122bb565b80601f0160208091040260200160405190810160405280929190818152602001828054610460906122bb565b80156104ad5780601f10610482576101008083540402835291602001916104ad565b820191906000526020600020905b81548152906001019060200180831161049057829003601f168201915b505050505081526020016003820180546104c6906122bb565b80601f01602080910402602001604051908101604052809291908181526020018280546104f2906122bb565b801561053f5780601f106105145761010080835404028352916020019161053f565b820191906000526020600020905b81548152906001019060200180831161052257829003601f168201915b50505050508152602001600482018054610558906122bb565b80601f0160208091040260200160405190810160405280929190818152602001828054610584906122bb565b80156105d15780601f106105a6576101008083540402835291602001916105d1565b820191906000526020600020905b8154815290600101906020018083116105b457829003601f168201915b505050505081526020016005820180546105ea906122bb565b80601f0160208091040260200160405190810160405280929190818152602001828054610616906122bb565b80156106635780601f1061063857610100808354040283529160200191610663565b820191906000526020600020905b81548152906001019060200180831161064657829003601f168201915b505050918352505060068201546020808301919091526007909201546001600160a01b031660409091015290825260019290920191016103bd565b5050505091505b50919050565b6001600160a01b03811660009081526002602052604090205460ff166107135760405162461bcd60e51b815260206004820152601860248201527f446f63746f72206973206e6f7420617574686f72697a656400000000000000006044820152606401610381565b3360008181526003602090815260408083208054600181810183559185528385200180546001600160a01b03979097166001600160a01b031997881681179091558452600483529083208054918201815583529120018054909216179055565b600080546001600160a01b038381169116148015906107ab57506001600160a01b03821660009081526002602052604090205460ff16155b92915050565b33600081815260036020526040812090805b82548110156108c357846001600160a01b03168382815481106107e8576107e86122ef565b6000918252602090912001546001600160a01b0316036108bb57825483906108129060019061231b565b81548110610822576108226122ef565b9060005260206000200160009054906101000a90046001600160a01b0316838281548110610852576108526122ef565b9060005260206000200160006101000a8154816001600160a01b0302191690836001600160a01b03160217905550828054806108905761089061232e565b600082815260209020810160001990810180546001600160a01b0319169055019055600191506108c3565b6001016107c3565b50806109235760405162461bcd60e51b815260206004820152602960248201527f446f63746f72206e6f7420666f756e6420696e20796f7572206170706f696e746044820152681b595b9d081b1a5cdd60ba1b6064820152608401610381565b6001600160a01b0384166000908152600460205260408120905b8154811015610a3957846001600160a01b0316828281548110610962576109626122ef565b6000918252602090912001546001600160a01b031603610a31578154829061098c9060019061231b565b8154811061099c5761099c6122ef565b9060005260206000200160009054906101000a90046001600160a01b03168282815481106109cc576109cc6122ef565b9060005260206000200160006101000a8154816001600160a01b0302191690836001600160a01b0316021790555081805480610a0a57610a0a61232e565b600082815260209020810160001990810180546001600160a01b0319169055019055610a39565b60010161093d565b505050505050565b86336001600160a01b0382161480610a5e5750610a5e3382611c8c565b610adc5760405162461bcd60e51b815260206004820152604360248201527f4f6e6c79207468652070617469656e74206f72207468656972206170706f696e60448201527f74656420646f63746f722063616e206164642061206865616c7468207265636f60648201526239321760e91b608482015260a401610381565b6001600160a01b038816600090815260056020526040812054610b00906001612344565b905060006040518061014001604052808381526020018b6001600160a01b031681526020018a60010b81526020018960010b8152602001888152602001878152602001868152602001858152602001428152602001336001600160a01b03168152509050600560008b6001600160a01b03166001600160a01b031681526020019081526020016000208190806001815401808255809150506001900390600052602060002090600802016000909190919091506000820151816000015560208201518160010160006101000a8154816001600160a01b0302191690836001600160a01b0316021790555060408201518160010160146101000a81548161ffff021916908360010b61ffff16021790555060608201518160010160166101000a81548161ffff021916908360010b61ffff1602179055506080820151816002019081610c4b91906123a6565b5060a08201516003820190610c6090826123a6565b5060c08201516004820190610c7590826123a6565b5060e08201516005820190610c8a90826123a6565b50610100820151600682015561012090910151600790910180546001600160a01b0319166001600160a01b0392831617905560405133918c16907f4d861259727afde033de42088d85930d8d899abbf2979cb30b4b71ef2034022090610cff9086908e908e908e908e908e908e904290612465565b60405180910390a350505050505050505050565b6001600160a01b038116600090815260036020908152604091829020805483518184028101840190945280845260609392830182828015610d7d57602002820191906000526020600020905b81546001600160a01b03168152600190910190602001808311610d5f575b50505050509050919050565b6001600160a01b0382163303610de15760405162461bcd60e51b815260206004820152601860248201527f53656c662d626f6f6b696e67206e6f7420616c6c6f77656400000000000000006044820152606401610381565b610e356040518060e0016040528060006001600160a01b031681526020016060815260200160608152602001600081526020016000151581526020016000815260200160006001600160a01b031681525090565b6000805b60015481101561103057846001600160a01b031660018281548110610e6057610e606122ef565b60009182526020909120600790910201546001600160a01b0316036110285760018181548110610e9257610e926122ef565b60009182526020918290206040805160e0810190915260079092020180546001600160a01b031682526001810180549293919291840191610ed2906122bb565b80601f0160208091040260200160405190810160405280929190818152602001828054610efe906122bb565b8015610f4b5780601f10610f2057610100808354040283529160200191610f4b565b820191906000526020600020905b815481529060010190602001808311610f2e57829003601f168201915b50505050508152602001600282018054610f64906122bb565b80601f0160208091040260200160405190810160405280929190818152602001828054610f90906122bb565b8015610fdd5780601f10610fb257610100808354040283529160200191610fdd565b820191906000526020600020905b815481529060010190602001808311610fc057829003601f168201915b505050918352505060038201546020820152600482015460ff1615156040820152600582015460608201526006909101546001600160a01b0316608090910152925060019150611030565b600101610e39565b50806110715760405162461bcd60e51b815260206004820152601060248201526f111bd8dd1bdc881b9bdd08199bdd5b9960821b6044820152606401610381565b6001600160a01b03841660009081526002602052604090205460ff166110d95760405162461bcd60e51b815260206004820152601860248201527f446f63746f72206973206e6f7420617574686f72697a656400000000000000006044820152606401610381565b81606001513410156111375760405162461bcd60e51b815260206004820152602160248201527f496e73756666696369656e74206665657320666f72206170706f696e746d656e6044820152601d60fa1b6064820152608401610381565b3360009081526003602090815260408083208054825181850281018501909352808352919290919083018282801561119857602002820191906000526020600020905b81546001600160a01b0316815260019091019060200180831161117a575b5050505050905060005b815181101561124157856001600160a01b03168282815181106111c7576111c76122ef565b60200260200101516001600160a01b0316036112395760405162461bcd60e51b815260206004820152602b60248201527f4170706f696e746d656e742077697468207468697320646f63746f7220616c7260448201526a1958591e48189bdbdad95960aa1b6064820152608401610381565b6001016111a2565b506040516001600160a01b038616903480156108fc02916000818181858888f19350505050158015611277573d6000803e3d6000fd5b503360008181526003602090815260408083208054600181810183559185528385200180546001600160a01b038c166001600160a01b0319918216811790925581865260048552838620805493840181558652939094200180549092168417909155519091907f83b1b3dca6677b6b853556425fc3fe56069b946be503553bf786b0a2a730f59c9061130e903490899042906124e2565b60405180910390a35050505050565b6000546001600160a01b0316331461138b5760405162461bcd60e51b815260206004820152602b60248201527f4f6e6c7920636f6e7472616374206f776e65722063616e20706572666f726d2060448201526a3a3434b99030b1ba34b7b760a91b6064820152608401610381565b6001600160a01b03821660009081526002602052604090205460ff166113f35760405162461bcd60e51b815260206004820152601860248201527f446f63746f72206973206e6f7420617574686f72697a656400000000000000006044820152606401610381565b6000805b6001548110156114bd57836001600160a01b03166001828154811061141e5761141e6122ef565b60009182526020909120600790910201546001600160a01b0316148015611470575060018181548110611453576114536122ef565b600091825260209091206004600790920201015460ff1615156001145b156114b5576001915060006001828154811061148e5761148e6122ef565b60009182526020909120600790910201600401805460ff19169115159190911790556114bd565b6001016113f7565b50806114fe5760405162461bcd60e51b815260206004820152601060248201526f111bd8dd1bdc881b9bdd08199bdd5b9960821b6044820152606401610381565b6001600160a01b038316600081815260026020526040808220805460ff19169055513392917ff240531de2584ac3c0c582f5d4f3d4da137d1082a1f63ab5c8c97c8753d30b2e9161155391908790429061250b565b60405180910390a3505050565b3360009081526002602052604090205460ff1615156001146115ea5760405162461bcd60e51b815260206004820152603f60248201527f4f6e6c7920617574686f72697a6564206865616c74682073657276696365207060448201527f726f76696465722063616e20706572666f726d207468697320616374696f6e006064820152608401610381565b33600081815260046020526040812090805b82548110156116fc57846001600160a01b0316838281548110611621576116216122ef565b6000918252602090912001546001600160a01b0316036116f4578254839061164b9060019061231b565b8154811061165b5761165b6122ef565b9060005260206000200160009054906101000a90046001600160a01b031683828154811061168b5761168b6122ef565b9060005260206000200160006101000a8154816001600160a01b0302191690836001600160a01b03160217905550828054806116c9576116c961232e565b600082815260209020810160001990810180546001600160a01b0319169055019055600191506116fc565b6001016115fc565b508061175d5760405162461bcd60e51b815260206004820152602a60248201527f50617469656e74206e6f7420666f756e6420696e20796f7572206170706f696e6044820152691d1b595b9d081b1a5cdd60b21b6064820152608401610381565b6001600160a01b0384166000908152600360205260408120905b8154811015610a3957846001600160a01b031682828154811061179c5761179c6122ef565b6000918252602090912001546001600160a01b0316036117c6578154829061098c9060019061231b565b600101611777565b6000546001600160a01b0316331461183c5760405162461bcd60e51b815260206004820152602b60248201527f4f6e6c7920636f6e7472616374206f776e65722063616e20706572666f726d2060448201526a3a3434b99030b1ba34b7b760a91b6064820152608401610381565b6001600160a01b03841660009081526002602052604090205460ff16156118a55760405162461bcd60e51b815260206004820152601960248201527f446f63746f7220616c726561647920617574686f72697a6564000000000000006044820152606401610381565b6040805160e0810182526001600160a01b03868116825260208201868152928201859052606082018490526001608083018190524260a08401523360c08401528054808201825560009190915282517fb10e2d527612073b26eecdfd717e6a320cf44b4afac2b0732d9fcbe2b7fa0cf6600790920291820180546001600160a01b031916919093161782559251919283927fb10e2d527612073b26eecdfd717e6a320cf44b4afac2b0732d9fcbe2b7fa0cf79091019061196590826123a6565b506040820151600282019061197a90826123a6565b5060608201516003820155608082015160048201805491151560ff1992831617905560a0830151600583015560c090920151600690910180546001600160a01b039283166001600160a01b0319909116179055861660008181526002602052604090819020805490931660019081179093555133927f4af6b6e4f0f5b4102aae525d642a8aacc4a23fc5a1114f14e49c9e244b943e239161130e918991899189914290612526565b6001600160a01b038116600090815260046020908152604091829020805483518184028101840190945280845260609392830182828015610d7d576020028201919060005260206000209081546001600160a01b03168152600190910190602001808311610d5f5750505050509050919050565b60606001805480602002602001604051908101604052809291908181526020016000905b82821015611c625760008481526020908190206040805160e081019091526007850290910180546001600160a01b031682526001810180549293919291840191611b03906122bb565b80601f0160208091040260200160405190810160405280929190818152602001828054611b2f906122bb565b8015611b7c5780601f10611b5157610100808354040283529160200191611b7c565b820191906000526020600020905b815481529060010190602001808311611b5f57829003601f168201915b50505050508152602001600282018054611b95906122bb565b80601f0160208091040260200160405190810160405280929190818152602001828054611bc1906122bb565b8015611c0e5780601f10611be357610100808354040283529160200191611c0e565b820191906000526020600020905b815481529060010190602001808311611bf157829003601f168201915b50505091835250506003820154602080830191909152600483015460ff1615156040830152600583015460608301526006909201546001600160a01b03166080909101529082526001929092019101611aba565b50505050905090565b60006a636f6e736f6c652e6c6f679050600080835160208501845afa505050565b6001600160a01b038116600090815260036020908152604080832080548251818502810185019093528083528493830182828015611cf357602002820191906000526020600020905b81546001600160a01b03168152600190910190602001808311611cd5575b5050505050905060005b8151811015611d4b57846001600160a01b0316828281518110611d2257611d226122ef565b60200260200101516001600160a01b031603611d43576001925050506107ab565b600101611cfd565b506000949350505050565b611d5e612569565b565b6001600160a01b0381168114611d7557600080fd5b50565b8035611d8381611d60565b919050565b600060208284031215611d9a57600080fd5b8135611da581611d60565b9392505050565b6000815180845260005b81811015611dd257602081850181015186830182015201611db6565b506000602082860101526020601f19601f83011685010191505092915050565b6000602082016020835280845180835260408501915060408160051b86010192506020860160005b82811015611f2157603f198786030184528151805186526020810151611e4b60208801826001600160a01b03169052565b506040810151611e60604088018260010b9052565b506060810151611e75606088018260010b9052565b5060808101516101406080880152611e91610140880182611dac565b905060a082015187820360a0890152611eaa8282611dac565b91505060c082015187820360c0890152611ec48282611dac565b91505060e082015187820360e0890152611ede8282611dac565b9150506101008201516101008801526101208201519150611f0b6101208801836001600160a01b03169052565b9550506020938401939190910190600101611e1a565b50929695505050505050565b8035600181900b8114611d8357600080fd5b634e487b7160e01b600052604160045260246000fd5b600082601f830112611f6657600080fd5b813567ffffffffffffffff811115611f8057611f80611f3f565b604051601f8201601f19908116603f0116810167ffffffffffffffff81118282101715611faf57611faf611f3f565b604052818152838201602001851015611fc757600080fd5b816020850160208301376000918101602001919091529392505050565b600080600080600080600060e0888a031215611fff57600080fd5b61200888611d78565b965061201660208901611f2d565b955061202460408901611f2d565b9450606088013567ffffffffffffffff81111561204057600080fd5b61204c8a828b01611f55565b945050608088013567ffffffffffffffff81111561206957600080fd5b6120758a828b01611f55565b93505060a088013567ffffffffffffffff81111561209257600080fd5b61209e8a828b01611f55565b92505060c088013567ffffffffffffffff8111156120bb57600080fd5b6120c78a828b01611f55565b91505092959891949750929550565b602080825282518282018190526000918401906040840190835b818110156121175783516001600160a01b03168352602093840193909201916001016120f0565b509095945050505050565b6000806040838503121561213557600080fd5b823561214081611d60565b9150602083013567ffffffffffffffff81111561215c57600080fd5b61216885828601611f55565b9150509250929050565b6000806000806080858703121561218857600080fd5b843561219381611d60565b9350602085013567ffffffffffffffff8111156121af57600080fd5b6121bb87828801611f55565b935050604085013567ffffffffffffffff8111156121d857600080fd5b6121e487828801611f55565b949793965093946060013593505050565b6000602082016020835280845180835260408501915060408160051b86010192506020860160005b82811015611f2157603f1987860301845281516001600160a01b038151168652602081015160e0602088015261225660e0880182611dac565b90506040820151878203604089015261226f8282611dac565b606084810151908a01526080808501511515908a015260a080850151908a015260c0938401516001600160a01b031693909801929092525050602093840193919091019060010161221d565b600181811c908216806122cf57607f821691505b6020821081036106a557634e487b7160e01b600052602260045260246000fd5b634e487b7160e01b600052603260045260246000fd5b634e487b7160e01b600052601160045260246000fd5b818103818111156107ab576107ab612305565b634e487b7160e01b600052603160045260246000fd5b808201808211156107ab576107ab612305565b601f8211156123a157806000526020600020601f840160051c8101602085101561237e5750805b601f840160051c820191505b8181101561239e576000815560010161238a565b50505b505050565b815167ffffffffffffffff8111156123c0576123c0611f3f565b6123d4816123ce84546122bb565b84612357565b6020601f82116001811461240857600083156123f05750848201515b600019600385901b1c1916600184901b17845561239e565b600084815260208120601f198516915b828110156124385787850151825560209485019460019092019101612418565b50848210156124565786840151600019600387901b60f8161c191681555b50505050600190811b01905550565b8881528760010b60208201528660010b604082015261010060608201526000612492610100830188611dac565b82810360808401526124a48188611dac565b905082810360a08401526124b88187611dac565b905082810360c08401526124cc8186611dac565b9150508260e08301529998505050505050505050565b8381526060602082015260006124fb6060830185611dac565b9050826040830152949350505050565b83151581526060602082015260006124fb6060830185611dac565b60a08152600061253960a0830188611dac565b828103602084015261254b8188611dac565b60408401969096525050911515606083015260809091015292915050565b634e487b7160e01b600052605160045260246000fdfea26469706673582212202a618b502c5f73739e1357327873bfc8f356a5b24c84d45ab2d1ca7e7f77df1864736f6c634300081c0033446563656e7472616c697a6564204865616c7468205265636f7264204d616e6167656d656e7420636f6e7472616374206465706c6f7965642062793a",
  "linkReferences": {},
  "deployedLinkReferences": {}
}