{
  "_format": "hh-sol-artifact-1",
  "contractName": "HealthRecordManagement",
  "sourceName": "contracts/HealthRecordManagement.sol",
  "abi": [
    {
      "inputs": [],
      "stateMutability": "nonpayable",
      "type": "constructor"
    },
    {
      "anonymous": false,
      "inputs": [
        {
          "indexed": false,
          "internalType": "uint256",
          "name": "recordId",
          "type": "uint256"
        },
        {
          "indexed": true,
          "internalType": "address",
          "name": "patientAddress",
          "type": "address"
        },
        {
          "indexed": false,
          "internalType": "int16",
          "name": "height",
          "type": "int16"
        },
        {
          "indexed": false,
          "internalType": "int16",
          "name": "weight",
          "type": "int16"
        },
        {
          "indexed": false,
          "internalType": "string",
          "name": "bloodPressure",
          "type": "string"
        },
        {
          "indexed": false,
          "internalType": "string",
          "name": "cholesterol",
          "type": "string"
        },
        {
          "indexed": false,
          "internalType": "string",
          "name": "diagnosis",
          "type": "string"
        },
        {
          "indexed": false,
          "internalType": "string",
          "name": "treatment",
          "type": "string"
        },
        {
          "indexed": false,
          "internalType": "uint256",
          "name": "timeStamp",
          "type": "uint256"
        },
        {
          "indexed": true,
          "internalType": "address",
          "name": "addedBy",
          "type": "address"
        }
      ],
      "name": "AddHealthRecord",
      "type": "event"
    },
    {
      "anonymous": false,
      "inputs": [
        {
          "indexed": true,
          "internalType": "address",
          "name": "fromPatientAddress",
          "type": "address"
        },
        {
          "indexed": true,
          "internalType": "address",
          "name": "toHealthServiceProviderAddress",
          "type": "address"
        },
        {
          "indexed": false,
          "internalType": "string",
          "name": "reason",
          "type": "string"
        },
        {
          "indexed": false,
          "internalType": "uint256",
          "name": "timeStamp",
          "type": "uint256"
        }
      ],
      "name": "BookAppointmentAndGrantAccess",
      "type": "event"
    },
    {
      "anonymous": false,
      "inputs": [
        {
          "indexed": true,
          "internalType": "address",
          "name": "doctorAddress",
          "type": "address"
        },
        {
          "indexed": false,
          "internalType": "bool",
          "name": "deregisterStatus",
          "type": "bool"
        },
        {
          "indexed": false,
          "internalType": "string",
          "name": "reason",
          "type": "string"
        },
        {
          "indexed": false,
          "internalType": "uint256",
          "name": "timeStamp",
          "type": "uint256"
        },
        {
          "indexed": true,
          "internalType": "address",
          "name": "deRegisteredBy",
          "type": "address"
        }
      ],
      "name": "DeRegisterAuthorizedDoctor",
      "type": "event"
    },
    {
      "anonymous": false,
      "inputs": [
        {
          "indexed": true,
          "internalType": "address",
          "name": "fromPatientAddress",
          "type": "address"
        },
        {
          "indexed": true,
          "internalType": "address",
          "name": "toHealthServiceProviderAddress",
          "type": "address"
        },
        {
          "indexed": false,
          "internalType": "uint256",
          "name": "timeStamp",
          "type": "uint256"
        }
      ],
      "name": "MarkAppointmentDoneAndRevokeAccess",
      "type": "event"
    },
    {
      "anonymous": false,
      "inputs": [
        {
          "indexed": true,
          "internalType": "address",
          "name": "doctorAddress",
          "type": "address"
        },
        {
          "indexed": false,
          "internalType": "string",
          "name": "qualification",
          "type": "string"
        },
        {
          "indexed": false,
          "internalType": "string",
          "name": "specialization",
          "type": "string"
        },
        {
          "indexed": false,
          "internalType": "bool",
          "name": "status",
          "type": "bool"
        },
        {
          "indexed": false,
          "internalType": "uint256",
          "name": "timeStamp",
          "type": "uint256"
        },
        {
          "indexed": true,
          "internalType": "address",
          "name": "registeredBy",
          "type": "address"
        }
      ],
      "name": "RegisterAuthorizedDoctor",
      "type": "event"
    },
    {
      "inputs": [
        {
          "internalType": "address",
          "name": "_patientAddress",
          "type": "address"
        },
        {
          "internalType": "int16",
          "name": "_height",
          "type": "int16"
        },
        {
          "internalType": "int16",
          "name": "_weight",
          "type": "int16"
        },
        {
          "internalType": "string",
          "name": "_bloodPressure",
          "type": "string"
        },
        {
          "internalType": "string",
          "name": "_cholesterol",
          "type": "string"
        },
        {
          "internalType": "string",
          "name": "_diagnosis",
          "type": "string"
        },
        {
          "internalType": "string",
          "name": "_treatment",
          "type": "string"
        }
      ],
      "name": "addHealthRecord",
      "outputs": [],
      "stateMutability": "nonpayable",
      "type": "function"
    },
    {
      "inputs": [
        {
          "internalType": "address",
          "name": "_doctorAddress",
          "type": "address"
        },
        {
          "internalType": "string",
          "name": "_reason",
          "type": "string"
        }
      ],
      "name": "bookAppointment",
      "outputs": [],
      "stateMutability": "payable",
      "type": "function"
    },
    {
      "inputs": [
        {
          "internalType": "address",
          "name": "_doctorAddress",
          "type": "address"
        },
        {
          "internalType": "string",
          "name": "_reason",
          "type": "string"
        }
      ],
      "name": "deregisterDoctor",
      "outputs": [],
      "stateMutability": "nonpayable",
      "type": "function"
    },
    {
      "inputs": [],
      "name": "getAllDoctors",
      "outputs": [
        {
          "components": [
            {
              "internalType": "address",
              "name": "doctorAddress",
              "type": "address"
            },
            {
              "internalType": "string",
              "name": "qualification",
              "type": "string"
            },
            {
              "internalType": "string",
              "name": "specialization",
              "type": "string"
            },
            {
              "internalType": "bool",
              "name": "status",
              "type": "bool"
            },
            {
              "internalType": "uint256",
              "name": "timeStamp",
              "type": "uint256"
            },
            {
              "internalType": "address",
              "name": "addedBy",
              "type": "address"
            }
          ],
          "internalType": "struct HealthRecordManagement.Doctor[]",
          "name": "",
          "type": "tuple[]"
        }
      ],
      "stateMutability": "view",
      "type": "function"
    },
    {
      "inputs": [
        {
          "internalType": "address",
          "name": "_patientAddress",
          "type": "address"
        }
      ],
      "name": "getAssignedDoctorsOfPatient",
      "outputs": [
        {
          "internalType": "address[]",
          "name": "",
          "type": "address[]"
        }
      ],
      "stateMutability": "view",
      "type": "function"
    },
    {
      "inputs": [
        {
          "internalType": "address",
          "name": "_doctorAddress",
          "type": "address"
        }
      ],
      "name": "getPatientsOfDoctor",
      "outputs": [
        {
          "internalType": "address[]",
          "name": "",
          "type": "address[]"
        }
      ],
      "stateMutability": "view",
      "type": "function"
    },
    {
      "inputs": [
        {
          "internalType": "address",
          "name": "user",
          "type": "address"
        }
      ],
      "name": "isAuthorizedDoctor",
      "outputs": [
        {
          "internalType": "bool",
          "name": "",
          "type": "bool"
        }
      ],
      "stateMutability": "view",
      "type": "function"
    },
    {
      "inputs": [
        {
          "internalType": "address",
          "name": "user",
          "type": "address"
        }
      ],
      "name": "isNormalUser",
      "outputs": [
        {
          "internalType": "bool",
          "name": "",
          "type": "bool"
        }
      ],
      "stateMutability": "view",
      "type": "function"
    },
    {
      "inputs": [
        {
          "internalType": "address",
          "name": "user",
          "type": "address"
        }
      ],
      "name": "isOwner",
      "outputs": [
        {
          "internalType": "bool",
          "name": "",
          "type": "bool"
        }
      ],
      "stateMutability": "view",
      "type": "function"
    },
    {
      "inputs": [
        {
          "internalType": "address",
          "name": "_doctorAddress",
          "type": "address"
        }
      ],
      "name": "markAppointmentDoneAndRevokeAccess",
      "outputs": [],
      "stateMutability": "nonpayable",
      "type": "function"
    },
    {
      "inputs": [
        {
          "internalType": "address",
          "name": "_doctorAddress",
          "type": "address"
        },
        {
          "internalType": "string",
          "name": "_qualification",
          "type": "string"
        },
        {
          "internalType": "string",
          "name": "_specialization",
          "type": "string"
        }
      ],
      "name": "registerDoctor",
      "outputs": [],
      "stateMutability": "nonpayable",
      "type": "function"
    },
    {
      "inputs": [
        {
          "internalType": "address",
          "name": "_patientAddress",
          "type": "address"
        }
      ],
      "name": "viewHealthRecords",
      "outputs": [
        {
          "components": [
            {
              "internalType": "uint256",
              "name": "recordId",
              "type": "uint256"
            },
            {
              "internalType": "address",
              "name": "patientAddress",
              "type": "address"
            },
            {
              "internalType": "int16",
              "name": "height",
              "type": "int16"
            },
            {
              "internalType": "int16",
              "name": "weight",
              "type": "int16"
            },
            {
              "internalType": "string",
              "name": "bloodPressure",
              "type": "string"
            },
            {
              "internalType": "string",
              "name": "cholesterol",
              "type": "string"
            },
            {
              "internalType": "string",
              "name": "diagnosis",
              "type": "string"
            },
            {
              "internalType": "string",
              "name": "treatment",
              "type": "string"
            },
            {
              "internalType": "uint256",
              "name": "timeStamp",
              "type": "uint256"
            },
            {
              "internalType": "address",
              "name": "addedBy",
              "type": "address"
            }
          ],
          "internalType": "struct HealthRecordManagement.HealthRecord[]",
          "name": "",
          "type": "tuple[]"
        }
      ],
      "stateMutability": "view",
      "type": "function"
    }
  ],
  "bytecode": "0x608060405234801561001057600080fd5b50600080546001600160a01b031916331790556040805160608101909152603c80825261004691906122c360208301393361004b565b61012f565b61009482826040516024016100619291906100cf565b60408051601f198184030181529190526020810180516001600160e01b0390811663319af33360e01b1790915261009816565b5050565b6100ab816100ae60201b6118601760201c565b50565b60006a636f6e736f6c652e6c6f679050600080835160208501845afa505050565b604081526000835180604084015260005b818110156100fd57602081870181015160608684010152016100e0565b50600060608285018101919091526001600160a01b03949094166020840152601f01601f191690910190910192915050565b6121858061013e6000396000f3fe6080604052600436106100c75760003560e01c80636eb0ae2011610074578063ca7c36901161004e578063ca7c369014610223578063dcf6a38214610243578063f0d950901461027c57600080fd5b80636eb0ae20146101b6578063af54c3a5146101d6578063b9435abe146101f657600080fd5b80634bf90839116100a55780634bf908391461016157806353d08ef414610183578063686fc54e146101a357600080fd5b8063147cf18a146100cc5780632a21a3af146101025780632f54bf6e14610132575b600080fd5b3480156100d857600080fd5b506100ec6100e7366004611971565b61029e565b6040516100f991906119d9565b60405180910390f35b34801561010e57600080fd5b5061012261011d366004611971565b610655565b60405190151581526020016100f9565b34801561013e57600080fd5b5061012261014d366004611971565b6000546001600160a01b0391821691161490565b34801561016d57600080fd5b5061018161017c366004611bcb565b610693565b005b34801561018f57600080fd5b5061018161019e366004611cbd565b610965565b6101816101b1366004611d36565b610bb5565b3480156101c257600080fd5b506101816101d1366004611d36565b6110a2565b3480156101e257600080fd5b506101816101f1366004611971565b6112e5565b34801561020257600080fd5b50610216610211366004611971565b6115ab565b6040516100f99190611d84565b34801561022f57600080fd5b5061021661023e366004611971565b611621565b34801561024f57600080fd5b5061012261025e366004611971565b6001600160a01b031660009081526002602052604090205460ff1690565b34801561028857600080fd5b50610291611695565b6040516100f99190611dd0565b606081336001600160a01b03821614806102bd57506102bd3382611881565b6103345760405162461bcd60e51b815260206004820152603f60248201527f416363657373207265737472696374656420746f207468652070617469656e7460448201527f206f72207468656972206170706f696e74656420646f63746f72206f6e6c790060648201526084015b60405180910390fd5b6001600160a01b038316600090815260056020908152604080832080548251818502810185019093528083529193909284015b82821015610648576000848152602090819020604080516101408101825260088602909201805483526001808201546001600160a01b03811695850195909552600160a01b8504810b92840192909252600160b01b909304900b60608201526002820180549192916080840191906103de90611e8c565b80601f016020809104026020016040519081016040528092919081815260200182805461040a90611e8c565b80156104575780601f1061042c57610100808354040283529160200191610457565b820191906000526020600020905b81548152906001019060200180831161043a57829003601f168201915b5050505050815260200160038201805461047090611e8c565b80601f016020809104026020016040519081016040528092919081815260200182805461049c90611e8c565b80156104e95780601f106104be576101008083540402835291602001916104e9565b820191906000526020600020905b8154815290600101906020018083116104cc57829003601f168201915b5050505050815260200160048201805461050290611e8c565b80601f016020809104026020016040519081016040528092919081815260200182805461052e90611e8c565b801561057b5780601f106105505761010080835404028352916020019161057b565b820191906000526020600020905b81548152906001019060200180831161055e57829003601f168201915b5050505050815260200160058201805461059490611e8c565b80601f01602080910402602001604051908101604052809291908181526020018280546105c090611e8c565b801561060d5780601f106105e25761010080835404028352916020019161060d565b820191906000526020600020905b8154815290600101906020018083116105f057829003601f168201915b505050918352505060068201546020808301919091526007909201546001600160a01b03166040909101529082526001929092019101610367565b5050505091505b50919050565b600080546001600160a01b0383811691161480159061068d57506001600160a01b03821660009081526002602052604090205460ff16155b92915050565b86336001600160a01b03821614806106b057506106b03382611881565b61072e5760405162461bcd60e51b815260206004820152604360248201527f4f6e6c79207468652070617469656e74206f72207468656972206170706f696e60448201527f74656420646f63746f722063616e206164642061206865616c7468207265636f60648201526239321760e91b608482015260a40161032b565b6001600160a01b038816600090815260056020526040812054610752906001611ed6565b905060006040518061014001604052808381526020018b6001600160a01b031681526020018a60010b81526020018960010b8152602001888152602001878152602001868152602001858152602001428152602001336001600160a01b03168152509050600560008b6001600160a01b03166001600160a01b031681526020019081526020016000208190806001815401808255809150506001900390600052602060002090600802016000909190919091506000820151816000015560208201518160010160006101000a8154816001600160a01b0302191690836001600160a01b0316021790555060408201518160010160146101000a81548161ffff021916908360010b61ffff16021790555060608201518160010160166101000a81548161ffff021916908360010b61ffff160217905550608082015181600201908161089d9190611f38565b5060a082015160038201906108b29082611f38565b5060c082015160048201906108c79082611f38565b5060e082015160058201906108dc9082611f38565b50610100820151600682015561012090910151600790910180546001600160a01b0319166001600160a01b0392831617905560405133918c16907f4d861259727afde033de42088d85930d8d899abbf2979cb30b4b71ef20340220906109519086908e908e908e908e908e908e904290611ff7565b60405180910390a350505050505050505050565b6000546001600160a01b031633146109d35760405162461bcd60e51b815260206004820152602b60248201527f4f6e6c7920636f6e7472616374206f776e65722063616e20706572666f726d2060448201526a3a3434b99030b1ba34b7b760a91b606482015260840161032b565b6001600160a01b03831660009081526002602052604090205460ff1615610a3c5760405162461bcd60e51b815260206004820152601960248201527f446f63746f7220616c726561647920617574686f72697a656400000000000000604482015260640161032b565b6040805160c0810182526001600160a01b038581168252602082018581529282018490526001606083018190524260808401523360a08401528054808201825560009190915282517fb10e2d527612073b26eecdfd717e6a320cf44b4afac2b0732d9fcbe2b7fa0cf6600690920291820180546001600160a01b031916919093161782559251919283927fb10e2d527612073b26eecdfd717e6a320cf44b4afac2b0732d9fcbe2b7fa0cf790910190610af59082611f38565b5060408201516002820190610b0a9082611f38565b50606082015160038201805491151560ff199283161790556080830151600483015560a090920151600590910180546001600160a01b039283166001600160a01b0319909116179055851660008181526002602052604090819020805490931660019081179093555133927fe5b4e02c4c2a31c08d90da03093c17dab734ba00fff002ea475d66238f966fec91610ba79188918891904290612074565b60405180910390a350505050565b6001600160a01b0382163303610c0d5760405162461bcd60e51b815260206004820152601860248201527f53656c662d626f6f6b696e67206e6f7420616c6c6f7765640000000000000000604482015260640161032b565b610c5a6040518060c0016040528060006001600160a01b0316815260200160608152602001606081526020016000151581526020016000815260200160006001600160a01b031681525090565b6000805b600154811015610e4b57846001600160a01b031660018281548110610c8557610c856120ad565b60009182526020909120600690910201546001600160a01b031603610e435760018181548110610cb757610cb76120ad565b60009182526020918290206040805160c0810190915260069092020180546001600160a01b031682526001810180549293919291840191610cf790611e8c565b80601f0160208091040260200160405190810160405280929190818152602001828054610d2390611e8c565b8015610d705780601f10610d4557610100808354040283529160200191610d70565b820191906000526020600020905b815481529060010190602001808311610d5357829003601f168201915b50505050508152602001600282018054610d8990611e8c565b80601f0160208091040260200160405190810160405280929190818152602001828054610db590611e8c565b8015610e025780601f10610dd757610100808354040283529160200191610e02565b820191906000526020600020905b815481529060010190602001808311610de557829003601f168201915b5050509183525050600382015460ff1615156020820152600482015460408201526005909101546001600160a01b0316606090910152925060019150610e4b565b600101610c5e565b5080610e8c5760405162461bcd60e51b815260206004820152601060248201526f111bd8dd1bdc881b9bdd08199bdd5b9960821b604482015260640161032b565b6001600160a01b03841660009081526002602052604090205460ff16610ef45760405162461bcd60e51b815260206004820152601860248201527f446f63746f72206973206e6f7420617574686f72697a65640000000000000000604482015260640161032b565b33600090815260036020908152604080832080548251818502810185019093528083529192909190830182828015610f5557602002820191906000526020600020905b81546001600160a01b03168152600190910190602001808311610f37575b5050505050905060005b8151811015610ffe57856001600160a01b0316828281518110610f8457610f846120ad565b60200260200101516001600160a01b031603610ff65760405162461bcd60e51b815260206004820152602b60248201527f4170706f696e746d656e742077697468207468697320646f63746f7220616c7260448201526a1958591e48189bdbdad95960aa1b606482015260840161032b565b600101610f5f565b503360008181526003602090815260408083208054600181810183559185528385200180546001600160a01b038c166001600160a01b0319918216811790925581865260048552838620805493840181558652939094200180549092168417909155519091907f113850a09d40847105a94cfc035a425513dc367bf55f492238a0817fd64804219061109390889042906120c3565b60405180910390a35050505050565b6000546001600160a01b031633146111105760405162461bcd60e51b815260206004820152602b60248201527f4f6e6c7920636f6e7472616374206f776e65722063616e20706572666f726d2060448201526a3a3434b99030b1ba34b7b760a91b606482015260840161032b565b6001600160a01b03821660009081526002602052604090205460ff166111785760405162461bcd60e51b815260206004820152601860248201527f446f63746f72206973206e6f7420617574686f72697a65640000000000000000604482015260640161032b565b6000805b60015481101561124257836001600160a01b0316600182815481106111a3576111a36120ad565b60009182526020909120600690910201546001600160a01b03161480156111f55750600181815481106111d8576111d86120ad565b600091825260209091206003600690920201015460ff1615156001145b1561123a5760019150600060018281548110611213576112136120ad565b60009182526020909120600690910201600301805460ff1916911515919091179055611242565b60010161117c565b50806112835760405162461bcd60e51b815260206004820152601060248201526f111bd8dd1bdc881b9bdd08199bdd5b9960821b604482015260640161032b565b6001600160a01b038316600081815260026020526040808220805460ff19169055513392917ff240531de2584ac3c0c582f5d4f3d4da137d1082a1f63ab5c8c97c8753d30b2e916112d89190879042906120e5565b60405180910390a3505050565b33600081815260036020526040812090805b82548110156113f757846001600160a01b031683828154811061131c5761131c6120ad565b6000918252602090912001546001600160a01b0316036113ef578254839061134690600190612110565b81548110611356576113566120ad565b9060005260206000200160009054906101000a90046001600160a01b0316838281548110611386576113866120ad565b9060005260206000200160006101000a8154816001600160a01b0302191690836001600160a01b03160217905550828054806113c4576113c4612123565b600082815260209020810160001990810180546001600160a01b0319169055019055600191506113f7565b6001016112f7565b50806114575760405162461bcd60e51b815260206004820152602960248201527f446f63746f72206e6f7420666f756e6420696e20796f7572206170706f696e746044820152681b595b9d081b1a5cdd60ba1b606482015260840161032b565b6001600160a01b0384166000908152600460205260408120905b815481101561156d57846001600160a01b0316828281548110611496576114966120ad565b6000918252602090912001546001600160a01b03160361156557815482906114c090600190612110565b815481106114d0576114d06120ad565b9060005260206000200160009054906101000a90046001600160a01b0316828281548110611500576115006120ad565b9060005260206000200160006101000a8154816001600160a01b0302191690836001600160a01b031602179055508180548061153e5761153e612123565b600082815260209020810160001990810180546001600160a01b031916905501905561156d565b600101611471565b506040514281526001600160a01b0386169033907f8884064826139ce7ab65c752ff9d38ec599b672ce816aa42dcd22566cf146a7790602001611093565b6001600160a01b03811660009081526003602090815260409182902080548351818402810184019094528084526060939283018282801561161557602002820191906000526020600020905b81546001600160a01b031681526001909101906020018083116115f7575b50505050509050919050565b6001600160a01b038116600090815260046020908152604091829020805483518184028101840190945280845260609392830182828015611615576020028201919060005260206000209081546001600160a01b031681526001909101906020018083116115f75750505050509050919050565b60606001805480602002602001604051908101604052809291908181526020016000905b828210156118575760008481526020908190206040805160c081019091526006850290910180546001600160a01b03168252600181018054929391929184019161170290611e8c565b80601f016020809104026020016040519081016040528092919081815260200182805461172e90611e8c565b801561177b5780601f106117505761010080835404028352916020019161177b565b820191906000526020600020905b81548152906001019060200180831161175e57829003601f168201915b5050505050815260200160028201805461179490611e8c565b80601f01602080910402602001604051908101604052809291908181526020018280546117c090611e8c565b801561180d5780601f106117e25761010080835404028352916020019161180d565b820191906000526020600020905b8154815290600101906020018083116117f057829003601f168201915b5050509183525050600382015460ff161515602080830191909152600483015460408301526005909201546001600160a01b031660609091015290825260019290920191016116b9565b50505050905090565b60006a636f6e736f6c652e6c6f679050600080835160208501845afa505050565b6001600160a01b0381166000908152600360209081526040808320805482518185028101850190935280835284938301828280156118e857602002820191906000526020600020905b81546001600160a01b031681526001909101906020018083116118ca575b5050505050905060005b815181101561194057846001600160a01b0316828281518110611917576119176120ad565b60200260200101516001600160a01b0316036119385760019250505061068d565b6001016118f2565b506000949350505050565b611953612139565b565b80356001600160a01b038116811461196c57600080fd5b919050565b60006020828403121561198357600080fd5b61198c82611955565b9392505050565b6000815180845260005b818110156119b95760208185018101518683018201520161199d565b506000602082860101526020601f19601f83011685010191505092915050565b6000602082016020835280845180835260408501915060408160051b86010192506020860160005b82811015611b0857603f198786030184528151805186526020810151611a3260208801826001600160a01b03169052565b506040810151611a47604088018260010b9052565b506060810151611a5c606088018260010b9052565b5060808101516101406080880152611a78610140880182611993565b905060a082015187820360a0890152611a918282611993565b91505060c082015187820360c0890152611aab8282611993565b91505060e082015187820360e0890152611ac58282611993565b9150506101008201516101008801526101208201519150611af26101208801836001600160a01b03169052565b9550506020938401939190910190600101611a01565b50929695505050505050565b8035600181900b811461196c57600080fd5b634e487b7160e01b600052604160045260246000fd5b600082601f830112611b4d57600080fd5b813567ffffffffffffffff811115611b6757611b67611b26565b604051601f8201601f19908116603f0116810167ffffffffffffffff81118282101715611b9657611b96611b26565b604052818152838201602001851015611bae57600080fd5b816020850160208301376000918101602001919091529392505050565b600080600080600080600060e0888a031215611be657600080fd5b611bef88611955565b9650611bfd60208901611b14565b9550611c0b60408901611b14565b9450606088013567ffffffffffffffff811115611c2757600080fd5b611c338a828b01611b3c565b945050608088013567ffffffffffffffff811115611c5057600080fd5b611c5c8a828b01611b3c565b93505060a088013567ffffffffffffffff811115611c7957600080fd5b611c858a828b01611b3c565b92505060c088013567ffffffffffffffff811115611ca257600080fd5b611cae8a828b01611b3c565b91505092959891949750929550565b600080600060608486031215611cd257600080fd5b611cdb84611955565b9250602084013567ffffffffffffffff811115611cf757600080fd5b611d0386828701611b3c565b925050604084013567ffffffffffffffff811115611d2057600080fd5b611d2c86828701611b3c565b9150509250925092565b60008060408385031215611d4957600080fd5b611d5283611955565b9150602083013567ffffffffffffffff811115611d6e57600080fd5b611d7a85828601611b3c565b9150509250929050565b602080825282518282018190526000918401906040840190835b81811015611dc55783516001600160a01b0316835260209384019390920191600101611d9e565b509095945050505050565b6000602082016020835280845180835260408501915060408160051b86010192506020860160005b82811015611b0857603f1987860301845281516001600160a01b038151168652602081015160c06020880152611e3160c0880182611993565b905060408201518782036040890152611e4a8282611993565b6060848101511515908a0152608080850151908a015260a0938401516001600160a01b0316939098019290925250506020938401939190910190600101611df8565b600181811c90821680611ea057607f821691505b60208210810361064f57634e487b7160e01b600052602260045260246000fd5b634e487b7160e01b600052601160045260246000fd5b8082018082111561068d5761068d611ec0565b601f821115611f3357806000526020600020601f840160051c81016020851015611f105750805b601f840160051c820191505b81811015611f305760008155600101611f1c565b50505b505050565b815167ffffffffffffffff811115611f5257611f52611b26565b611f6681611f608454611e8c565b84611ee9565b6020601f821160018114611f9a5760008315611f825750848201515b600019600385901b1c1916600184901b178455611f30565b600084815260208120601f198516915b82811015611fca5787850151825560209485019460019092019101611faa565b5084821015611fe85786840151600019600387901b60f8161c191681555b50505050600190811b01905550565b8881528760010b60208201528660010b604082015261010060608201526000612024610100830188611993565b82810360808401526120368188611993565b905082810360a084015261204a8187611993565b905082810360c084015261205e8186611993565b9150508260e08301529998505050505050505050565b6080815260006120876080830187611993565b82810360208401526120998187611993565b941515604084015250506060015292915050565b634e487b7160e01b600052603260045260246000fd5b6040815260006120d66040830185611993565b90508260208301529392505050565b83151581526060602082015260006121006060830185611993565b9050826040830152949350505050565b8181038181111561068d5761068d611ec0565b634e487b7160e01b600052603160045260246000fd5b634e487b7160e01b600052605160045260246000fdfea2646970667358221220bd746fe48f7368f2ad6a03e0e6d5084f05b1481a6dc41558710885d2fab8cc2264736f6c634300081c0033446563656e7472616c697a6564204865616c7468205265636f7264204d616e6167656d656e7420636f6e7472616374206465706c6f7965642062793a",
  "linkReferences": {},
  "deployedLinkReferences": {}
}